:020000040800F2
:10000000C83A0220A90100089D6E0008E75B0008BD
:10001000396E0008F50D00087FA2000800000000FE
:1000200000000000000000000000000065880008DB
:10003000910F0008000000003D71000821890008B0
:10004000C3010008C3010008C3010008C301000880
:10005000C3010008C3010008C3010008C301000870
:10006000C3010008C3010008CF180008C30100083D
:10007000C3010008C3010008C3010008C301000850
:10008000C3010008C3010008C3010008C301000840
:10009000C3010008C3010008C3010008D518000807
:1000A000C3010008C3010008C3010008C301000820
:1000B000C3010008C301000800000000C3010008DC
:1000C000C3010008C3010008C3010008C301000800
:1000D000C3010008C3010008358F0008C3010008F0
:1000E000C3010008C3010008000000000000000078
:1000F0000000000000000000000000000000000000
:1001000000000000C301000800000000C301000857
:10011000C301000800000000C30100080000000047
:10012000C3010008C3010008C3010008C30100089F
:10013000C3010008C3010008C3010008000000005B
:10014000C3010008C3010008C3010008FDA10008A5
:10015000C3010008C3010008C3010008C30100086F
:10016000C3010008C3010008C3010008000000002B
:1001700000000000C30100080000000000000000B3
:10018000C3010008C3010008C3010008C30100083F
:10019000C3010008DFF80CD000F062FC0048004703
:1001A00091EF0008C83A02200648804706480047F9
:1001B000FEE7FEE7FEE7FEE7FEE7FEE7FEE7FEE717
:1001C000FEE7FEE7118A0008950100082DE9F05FBF
:1001D0000546002092469B468846064681464024B6
:1001E0001BE0284641464746224600F0A6FA534601
:1001F0005A46C01A914110D311461846224600F0C3
:100200008DFA2D1A67EB01084F4622460120002186
:1002100000F084FA17EB00094E41201EA4F10104FE
:10022000DFDC484631462A464346BDE8F09F40EAB7
:1002300001039B0703D009E008C9121F08C0042A64
:10024000FAD203E011F8013B00F8013B521EF9D24B
:100250007047D2B201E000F8012B491EFBD2704773
:100260000022F6E710B513460A4604461946FFF782
:10027000F0FF204610BD2DE9FE4F804681EA0300C5
:10028000C00F0C46009021F0004123F00045B8EB70
:100290000200A94105D24046214690461C460B4625
:1002A000024623F00040104347D0270DC7F30A0051
:1002B000C3F30A510290401A019040286BDAC3F34D
:1002C000130040F4801B0098924620B10023D2EB2B
:1002D000030A63EB0B0B01985946C0F140025046EC
:1002E00000F01CFA06460D4650465946019A00F0A9
:1002F00034FA10EB08006141002487EA115284EAC5
:10030000E7731A4340D0009A62B3019A012A4FEA78
:10031000075215DC001B61EB02014FF0004202EABC
:100320000752CDE90042001C41F5801132462B46B0
:1003300000F06BFA03B0BDE8F08F40462146F9E7C4
:10034000001B61EB0201001C41F5801300185B41AA
:100350002018A2F5001747EB030140EAD570B61943
:100360006D4111E06D084FEA360645EAC0754FEA67
:100370000752001B61EB0201001C41F58011490886
:100380004FEA30000019514132462B4603B0BDE818
:10039000F04F00F02BBA0098012240000023D0EB70
:1003A000020263EBE073009821464FEAE074B8EB79
:1003B000000061EB0401E9E783F000435BE781F0B3
:1003C000004158E72DE9FE4F81EA030404F00044A0
:1003D00021F0004100944FF0000B23F0004350EA5D
:1003E00001045ED052EA03045BD0C3F30A54C1F3A4
:1003F0000A552C44A4F2F3340194A0FB0254C1F337
:10040000130141F48011C3F3130343F4801301FB80
:10041000024400FB034E840A970A44EA815447EAE7
:100420008357A4FB076802958D0A05FB07854FEAF1
:10043000932C04FB0C542705029D4FEA065847EA0B
:100440001637B5EB08056EEB070C870E920E47EAE0
:10045000811742EA8312A7FB0201B6EB0B0164EBA2
:1004600000042B0D43EA0C335E1844EB1C50DA46B3
:100470005146E7FB0201C5F313044FEA0B3343EA8D
:1004800014534FEA0432019C43EA0603A4F10C041E
:100490000294009CCDE900B400F0B7F903B0BDE8C8
:1004A000F08F00200146F9E72DE9F04D81EA0304C1
:1004B00004F0004B21F0004514464FF0000A23F0F1
:1004C000004150EA050220D054EA01021DD0C5F3D4
:1004D0000A570246C5F31303C1F31300C1F30A56CA
:1004E00040F4801543F48013A7EB0608101BD64692
:1004F00008F2FD3873EB050002D308F1010801E0B2
:1005000092185B41B8F1000F03DA00200146BDE804
:10051000F08D00204FF48011064684460EE0171B34
:1005200073EB050705D3121B63EB050306434CEA87
:10053000010C49084FEA300092185B4150EA01076C
:10054000EDD152EA030012D082EA040083EA0501E9
:10055000084305D0101BAB4106D20122002306E060
:1005600000224FF0004302E06FF0010253101AEB3B
:1005700006004CEB085110EB0A0041EB0B01BDE803
:10058000F04D00F033B90EB5C10F80EAE0700844B9
:10059000CA07002140F233438DE80E000A460B469D
:1005A00000F033F903B000BD0EB540F233410291C3
:1005B0000021CDE900110A460B4600F026F903B0F0
:1005C00000BD70B5C1F30A5201F000450024C1F32B
:1005D000130140F2FF3341F480119A4201DA002006
:1005E00070BD40F233439A42A2F2334203DC5242DE
:1005F00000F0A3F800E090402C43F1D0404270BDE1
:10060000C1F30A5210B5C1F3130140F2FF3341F4B4
:1006100080119A4201DA002010BD40F233439A4221
:10062000A2F2334203DC524200F087F810BD904042
:1006300010BD00F0004230F000400AD0C10D01F5BD
:100640006071C0F3160042EA0151C208400711432D
:10065000704700200146704730B5041E71F1000458
:1006600004DB4FF00044404264EB0101141E73F1BF
:10067000000405DB1C464FF00043524263EB0403C9
:100680008B4208BF824230BD30B5041E71F10004B8
:1006900004DB4FF00044404264EB0101141E73F18F
:1006A000000405DB1C464FF00043524263EB040399
:1006B000994208BF904230BD01F0004330B421F0B0
:1006C000004150EA010206D00A0DA2F56072C1F3A2
:1006D0001301002A02DC30BC00207047440F44EABA
:1006E000C104C100E01830BC00EBC25000F047B8B4
:1006F00030B50B46014600202022012409E021FAF2
:1007000002F59D4205D303FA02F5491B04FA02F5EE
:100710002844151EA2F10102F1DC30BD202A04DBC1
:10072000203A00FA02F1002070479140C2F1200304
:1007300020FA03F3194390407047202A04DB203A43
:1007400021FA02F00021704721FA02F3D040C2F1F1
:1007500020029140084319467047202A06DBCB1738
:10076000203A41FA02F043EAE07306E041FA02F36C
:10077000D040C2F120029140084319467047002939
:10078000A8BF7047401C490008BF20F00100704717
:1007900010B4B0FA80FC00FA0CF050EA010404BF77
:1007A00010BC704749B1CCF1200421FA04F411FACD
:1007B0000CF118BF012121430843A3EB0C01CB1D11
:1007C0004FEA00614FEA102042BF002010BC704782
:1007D00000EBC35010440029A4BF10BC7047401C5C
:1007E000490008BF20F0010010BC704710B5141E6E
:1007F00073F1000408DA401C41F1000192185B41DA
:100800001A4301D120F0010010BD2DE9F04D9246B0
:100810009B4611B1B1FA81F202E0B0FA80F22032C7
:100820009046FFF77BFF04460F4640EA0A0041EA84
:100830000B0153465A46084313D0114653EA0100B0
:1008400019D0C8F140025046FFF777FF05460E4623
:10085000504659464246FFF761FF084305D0012044
:1008600004E020463946BDE8F08D0020054346EA05
:10087000E0762C4337430A986305E40AA0EB0800AE
:100880000022FD0A44EA47540A3002D500200146FE
:10089000E9E7010510196941DDE9084500196941D9
:1008A000BDE8F04DA2E72DE9F04D00231A461B1AD2
:1008B0008A4103DB00200146BDE8F08DC1F30A52F6
:1008C000C1F3130141F480154FF0000BD10702D1A1
:1008D00000186D41521E0027044640F2FF113846B1
:1008E00001EB620A3E468046024600204FF480112A
:1008F000FFF723FFC2197141BB1846EB0100B4EBAF
:10090000030C75EB000C04D3E41A65EB00051746E5
:100910000E46241908F101006D4180463428E3DDBC
:10092000F91946EB0600091BA84103D24FF0FF322C
:10093000134601E0002213461BEB070046EB0A5169
:10094000BDE8F04DFFF752BF2DE9F041054621F01B
:1009500000400C46284309D0C4F30A5040F233410A
:10096000884205DD28462146BDE8F0812846FBE7A0
:1009700040F2FE31884210DC0CDB4FEA043040EAE2
:10098000155050EA053105D0104804F000410143EC
:100990000020E9E700200146E6E7A0F233404642A6
:1009A000C6F1400228462146FFF7B8FE07468846B2
:1009B000284621463246FFF7C0FE43463A46FFF737
:1009C00015FF3246BDE8F041FFF7A8BE0000F03F3A
:1009D000C1F30A52C1F3130140F2FF3341F4801115
:1009E0009A4202DA00200146704740F233439A42AD
:1009F000A2F2334202DC5242FFF79FBEFFF78EBEE7
:100A000070B5044601F000450020054304D14FF0C5
:100A10000045644265EB010103F00045284305D120
:100A200018464FF00043524263EB0003101B73EB78
:100A3000010002D24FF0004009E082EA040283EA9A
:100A400001034FF000501A4301D14FF0C0404FEA6C
:100A50002062EFF3008162F31F6181F3008870BDB3
:100A6000064C074D06E0E06840F0010394E80700FB
:100A700098471034AC42F6D3FFF790FB3853010887
:100A80005853010870B58C1810F8015B15F0070376
:100A900001D110F8013B2A1106D110F8012B03E017
:100AA00010F8016B01F8016B5B1EF9D12B0705D41F
:100AB0000023521E0DD401F8013BFAE710F8013B68
:100AC000CB1A921C03E013F8015B01F8015B521E84
:100AD000F9D5A142D8D3002070BD00002DE9F04126
:100AE000044600270D46006805F068FA06462068AF
:100AF00005F060FA304359D02068C1682C4E890156
:100B000005D5617E012902D1217E01290BD0022D5C
:100B10001DD0206805F052FAB8B120688168C1F391
:100B2000400169B111E00125224902E08F422ED235
:100B30007F1C0268D2435206F8D440210160E8E7E6
:100B40008168314041F010018160012D11D0206891
:100B500005F030FA48B120688168C1F3400121B93D
:100B60008168314041F020018160022D08D0032DC1
:100B700004D0042501F0D4FF064613E00C25F9E764
:100B80000825F7E701F0CCFF801B05280AD9A06DE6
:100B900040F01000A065E06D40F00100E06501202C
:100BA000BDE8F081206880682842EBD10020F7E79B
:100BB000C0FFFF7F000040A370B504460068816855
:100BC0008268C1F3400112F0010F24D019BB816883
:100BD00001F00D01012910D18168104A1140891CD2
:100BE000816021680320086001F09AFF05460EE04D
:100BF00001F096FF401B022809D9A06D40F01000BB
:100C0000A065E06D40F00100E065012070BD206846
:100C10008068C007ECD1002070BD0000C0FFFF7FDE
:100C200070B504460068816811F0010F28D1816811
:100C3000144A114215D18168D5432940491C81606D
:100C400001F06EFF064616E0816811F0010F03D136
:100C500081682940491C816001F062FF801B0228E5
:100C600009D9A06D40F01000A065E06D40F00100D2
:100C7000E065012070BD20680168C943C907E3D160
:100C8000002070BD3F00008030B5ADF5037D0CF055
:100C90006FF842F6BE5432211EA30122084600948A
:100CA0000BF064FF0CF0D2F806F088F800221D4922
:100CB0001D480CF091FC4FF40070009002AB002234
:100CC00007211AA00CF0E2F940F2DC55C8B118A1D6
:100CD000CDE9001023460122642132200CF014F8E3
:100CE0000CF0B4F8284601F085FD0BF01FF90DF06B
:100CF00051FD642001F07EFD02F04AFC0DF5037DFC
:100D000030BD0EA301226421322000940BF02EFF8F
:100D1000E6E70000466F726D617474696E672E2E8F
:100D20002E0000006A01002068070020000000007B
:100D30004572726F7220282564290000446F6E6529
:100D40000000000010B50421024801F0DFFE012080
:100D500010BD0000000400480146014804F030B90D
:100D6000A405002010B5044804F03CF9042801D083
:100D7000012010BD002010BDA405002010B500F01A
:100D80000BF8012801D0022010BDBDE81040014839
:100D900004F03EB9A405002008B501208DF800003C
:100DA000FFF7D0FF10B900208DF800009DF800007B
:100DB00008BD000038B50024009313460A460146DA
:100DC000034804F0CDF900B10124204638BD0000ED
:100DD000A405002038B50024009313460A460146B6
:100DE000034804F0B9FA00B10124204638BD0000E0
:100DF000A4050020FEE738B500244FF4FA7501225F
:100E00006946802006F01AF8641CAC4206D89DF8AA
:100E1000001001F00101491E0142F0D038BD000070
:100E200030B589B000208DF82000FFF7E4FF0122E3
:100E300008A9202006F022F84FF4FA6420B90CF03B
:100E400005F8204601F0D6FCFFF7D5FF0A2205A9D8
:100E5000A02005F0F3FF4FF47845C0B99DF81800C5
:100E60000DF1040C9DF81B309DF81A209DF8191007
:100E70008CE80F002BA000902B46012278215020F7
:100E80000BF042FF0BF0E2FF204601F0B3FC9DF8AF
:100E90001500492817D19DF81600542813D19DF844
:100EA000170045280FD19DF8180037280BD19DF861
:100EB0001920322A07D19DF81A10362903D19DF83E
:100EC0001B30302B1BD09DF818000DF1040C9DF841
:100ED0001B309DF81A209DF819108CE80F0014A003
:100EE00000902B460122782150200BF00DFF0BF0D3
:100EF000ADFF204601F07EFC002009B030BDCDE9F9
:100F0000010210A00090CDE903132B4601227821A5
:100F100050200BF0F9FE0BF099FF204601F06AFC1F
:100F20000120EAE72564202564202564202564004B
:100F30006572726F72202564202564202564202547
:100F4000640000006F6B2025642025642025642048
:100F5000256400001CB50DA000680090FFF74BFF52
:100F600004226946202005F089FF00280BD0FFF7F6
:100F700042FF022201A9A02005F060FF002802D054
:100F8000019808B100201CBD01201CBD0204010015
:100F9000704700002DE9F0435A382DED048B83B0E3
:100FA000984691460C4600B2FFF7EDFA9FED261BDE
:100FB00053EC112BFFF706FA9FED251B53EC112B79
:100FC000FFF772FAFFF778FB05462046FFF7ECFAC9
:100FD0000E46044646EC180B2846FFF72AFB41EC68
:100FE000100B09F029FA53EC182B51EC100BFFF7FA
:100FF000E9F99FED199B53EC192BFFF73CF9FFF72B
:10100000E0FA074646EC184B2846FFF712FB41EC86
:10101000100B09F021FB53EC182B51EC100BFFF7D0
:10102000D1F953EC192BFFF726F9FFF7CAFA03B2EF
:1010300078213AB20846CDE900890BF0ECFC03B008
:10104000BDEC048BBDE8F083F1D4C853FB2109400B
:1010500000000000008066400000000000005E40CC
:101060002DE9FF4F4FF4FC612DED020B44F20820F7
:101070004FF47E442DED088B85B003910BF020FEDC
:101080007720804600259FEDEAAB9FEDEBBB9FEDFF
:10109000EC8BFFF789FACDE901015A20B5FBF0F19D
:1010A00000FB115000287CD01E20B5FBF0F100FBA6
:1010B0001150002876D00620A8EB00072846FFF73D
:1010C00073FA53EC1A2BFFF77DF953EC1B2BFFF748
:1010D000EBF9FFF7F1FA0646DDE9010141EC190BE6
:1010E0003046FFF7A6FA41EC100B09F0A5F953ECD6
:1010F000192B51EC100BFFF765F953EC182BFFF788
:10110000BAF8FFF75EFA8346DDE9010141EC190BFD
:101110003046FFF78EFA41EC100B09F09DFA53ECC4
:10112000192B51EC100BFFF74DF953EC182BFFF76F
:10113000A2F8FFF746FA82463846FFF735FA074627
:1011400041EC190B30460091FFF773FA41EC100B9C
:1011500009F072F953EC192B51EC100BFFF732F92F
:1011600053EC182BFFF787F8FFF72BFA009981460D
:1011700041EC197B3046FFF75CFA41EC100B09F0AB
:101180006BFA53EC192B51EC100BFFF71BF953ECD6
:10119000182BFFF770F8FFF714FA03B20FFA89F271
:1011A00001E091E092E00FFA8AF10FFA8BF00094DF
:1011B0000BF08DFCAD1DADB2B5F5B47F7FF66DAF14
:1011C0001199022201EB4101490000910398CDE9F8
:1011D000010278210023772208460BF0A9F99AA38F
:1011E00001221E21A52000940BF0C0FC97A3012230
:1011F0003F21C82000940BF0B9FC95A303226A217B
:10120000CF2000940BF0B2FC92A30122A021C820B1
:1012100000940BF0ABFC90A30122C121A520009407
:101220000BF0A4FC8DA30322C321702000940BF0CB
:101230009DFC8BA30122C121412000940BF096FC60
:1012400088A30122A021202000940BF08FFC86A30C
:1012500003226A21112000940BF088FC83A3012251
:101260003F21202000940BF081FC81A301221E214C
:10127000412000940BF07AFC7EA303220E216A2009
:1012800000940BF073FC0FAD7BA395E80700CDE94C
:101290000030CDE902122346012250214B200BF0F1
:1012A00033FD1298DDE91C1278A300F5FA60CDE950
:1012B0000030CDE90212234601228C2146200BF09A
:1012C00023FD129820B10BE00D20F5E60A20F3E68D
:1012D00073A00090234601228C2141200BF014FDC5
:1012E00011980A25B0FBF5F11098234600EB400059
:1012F00001EB400002226421FFF74CFE0F982346C9
:10130000C0EB001041001098042201EB5000322184
:10131000FFF740FE43F229264FF48270CDE9000624
:1013200008247821BE237322029408460BF000F9AA
:101330001E98FFF739F99FED5B1B53EC112BFFF75C
:1013400041F8FFF73EF9BE2101FA80F000B249F6FC
:1013500036118DE813007821BE23732208460BF066
:10136000E7F8AA20CDE900067821642373220294CD
:1013700008460BF0DDF81F98FFF716F99FED4B1BA1
:1013800053EC112BFFF71EF8FFF71BF9642101FA4C
:1013900080F000B21F218DE81300782164237322AE
:1013A00008460BF0C5F85020CDE9000678210A2345
:1013B0007322029408460BF0BBF823989FED3D8BF7
:1013C0000028209825D0FFF7EFF853EC182BFEF7F4
:1013D000F9FFFFF7F6F805FA80F000B24FF6A80122
:1013E0008DE8130078210A23732208460BF0A0F839
:1013F0002298012807D131A000901F2301225021FB
:101400003C200BF081FC05B0BDEC088B06B0BDE8BC
:10141000F08FFFF7C9F853EC182BFEF7D3FFFFF757
:10142000D0F805FA80F000B240F22E71D8E7000043
:10143000F1D4C853FB210940000000000080664041
:101440000000000000005E4031000000320000009B
:1014500033000000340000003500000036000000BA
:101460003700000038000000390000003130000073
:10147000313100003132000025303264203A20251D
:10148000303264203A202530326400002530346444
:10149000202F2025303264202F2025303264000098
:1014A000210000003BDF4F8D976E723F000000006F
:1014B00000802140666666666666E63F55534200D8
:1014C0002DE9FC5F06469A4690460D46901B00D5D6
:1014D000404207B2BAEB050000D540420FFA80F94E
:1014E0004FF0FF30464501DA012100E0014601914D
:1014F0005146554500DA01208346A7EB090004B2A6
:1015000040460C9A0BF00EFBC9F10000009016E06B
:10151000294630460C9A0BF005FB6000009900B29A
:10152000884205DDA4EB09010CB2019931440EB2E9
:10153000B84204DAE01904B205EB0B0005B24645E7
:10154000E6D15545E4D1BDE8FC9F00002DE9F05FF0
:101550001C462DED088B15465B1AA2EB0002DDF848
:1015600048B000D55B42002A00DA5242934207DDC0
:101570000246084611462A4625460126144600E042
:101580000026A84205DD0246284615460A462146A1
:1015900014468046A5EB080000EE100A0F46E01B3B
:1015A000B8EEC00A00EE900AF8EEE00AB5EEC00A06
:1015B000F1EE10FA02D1B7EE008A01E080EE808AE7
:1015C0004046FEF7E0FF8A4681464AEC100B08F0E1
:1015D000D3FF51EC100BFFF76FF800EE108A09EE05
:1015E000100AB8EEC00A79EE400A00EE107AF8EE62
:1015F000C09A48EE209A4AEC109B9FED87AB51ECC5
:10160000100B53EC1A2BFEF736FEFFF755F800EEE1
:10161000100A0FF07BFEF0EE408ABDEEC90A10EE14
:10162000100AB0EE690A0FFA80F80DF085F807B2DB
:10163000B0EE690A9EB10FF069FE20EE280A5A4604
:101640004146384600F0ECF8B0EE690A0CF0FEFBBB
:101650007F1C20EE280A5A46414638B212E00FF0AD
:1016600055FE20EE280A5A463946404600F0D8F882
:10167000B0EE690A0CF0EAFB7F1C20EE280A5A46FD
:1016800039B2404600F0CCF879EE888A28462F46D9
:10169000FEF779FF8946054649EC100B08F06CFF10
:1016A00051EC100BFFF708F800EE107A09EE900AE3
:1016B00053EC1A2BB8EEC00A79EEC00A00EE104ABD
:1016C000B8EEC0BA08EE20BA49EC105B51EC100B32
:1016D000FEF7D1FDFEF7F0FF00EE100A0CF0B6FBAE
:1016E000B0EE409ABDEEE90A10EE100AB0EE4B0AD9
:1016F00004B20DF021F805B2B0EE4B0ACEB10FF0F6
:1017000005FE20EE090A5A462146284600F088F8D0
:10171000B0EE4B0A0CF09AFB6D1C20EE090A5A46FB
:10172000214628B200F07CF808F1010005B2641EE1
:1017300041E00FF0EBFD20EE090A5A46294620460B
:1017400000F06EF8B0EE4B0A0CF080FB6D1C20EE42
:10175000090A5A4629B2204600F062F808F1010051
:1017600005B2641E55E000BFB0EE680A0FF0CEFD72
:10177000F0EE400AB0EE680A0CF0DEFF00B2B0EE08
:10178000600A5A46294600F04BF8B0EE680A0CF0A1
:101790005DFBF0EE400AB0EE680A0CF0CDFF401C95
:1017A00000B2B0EE600A5A46294600F039F878EEE9
:1017B000888A6D1C2DB2A542D6DDBDEC088BBDE834
:1017C000F09F00BFB0EE680A0FF0A0FDF0EE400AF7
:1017D000B0EE680A0CF0B0FF01B2B0EE600A5A46F3
:1017E000284600F01DF8B0EE680A0CF02FFBF0EE72
:1017F000400AB0EE680A0CF09FFF401C01B2B0EE48
:10180000600A5A46284600F00BF878EE888A6D1C6C
:101810002DB2A542D6DDD0E7000000000000E03F79
:10182000B0B50C462DED028BB0EE408A054617464A
:101830000BF054FA00F01F0100EE901AB7EE000A08
:1018400007F01F0130EE480AF8EE600A01EE101AA8
:10185000C0F34511C00A60EE800AB8EE411AB2B278
:1018600041EE080AFCEEE00A10EE903A00EE901A03
:10187000C7F3451101EE101AF8EE600A63F3040293
:10188000B8EE411A60EE800A41EE080AFCEEE00A6A
:1018900010EE901A00EE900AF80A61F34A12F8EE80
:1018A000600A214620EE800A00EE900AF8EE600AF7
:1018B00000EE880ABDEC028BBCEEC00A10EE100AE6
:1018C00060F3CF222846BDE8B0400BF02BB91020C2
:1018D00001F04CB810B5202001F048F8402001F08C
:1018E00045F8802001F042F8BDE810404FF48070C8
:1018F00001F03CB810B50CF04DFF642000F07AFF09
:10190000BDE8104001F044BE002200F001B8000024
:1019100030B50E4B054601205C7A002C14D1587A64
:101920001C54587A03EB800045605D7A03F108008F
:101930002A54587A421C5A72303008703A20487043
:101940002F208870CC70002030BD0000401800208F
:1019500008B1292000E0282006F08ABF37B50C46E0
:101960000546F0280FD2002C0DDBF02C0BDA02A874
:1019700006F0D0FFC4EB0411034A05EB0111BDF8DA
:10198000080022F811003EBDAC1800202DE9F041FE
:101990001D46141E0E4607463ADD002D38DDF02F99
:1019A00036DAF02E34DA002F02DA104404B20027BF
:1019B000002E02DA581805B20026002C28DD002D72
:1019C00026DD3819F02802DDC7F1F00004B27019E5
:1019D000F02802DDC6F1F00005B206A806F09AFF75
:1019E00000210C4ABDF818C010E000207318C3EBAA
:1019F000031307EB031305E003EB000E401C22F872
:101A00001EC080B2A042F7DB491C89B2A942ECDBC0
:101A1000BDE8F081AC180020F020704708B5F02830
:101A200003D2002901DBF02901DB002008BDC1EB56
:101A3000011100EB0110054931F81000ADF800006C
:101A4000684606F067FFBDF8000008BDAC1800202E
:101A5000F020704770B50A4D4FF480640022214693
:101A6000284601F058F80A2000F0C4FE0122214661
:101A7000284601F050F8BDE87040962000F0BABE4C
:101A80000008004838B5FF48002404704470FFF790
:101A9000E1FFFFF7DFFFEF2006F0EAFEEB2006F0A4
:101AA000E7FE142006F002FFFE2006F0E1FEEF2024
:101AB00006F0DEFEEB2006F0DBFE142006F0F6FE5C
:101AC000842006F0D5FE402006F0F0FE852006F0CA
:101AD000CFFEFF2006F0EAFE862006F0C9FEFF20BA
:101AE00006F0E4FE872006F0C3FEFF2006F0DEFECF
:101AF000882006F0BDFE0A2006F0D8FE892006F0F8
:101B0000B7FE212006F0D2FE8A2006F0B1FE0020AA
:101B100006F0CCFE8B2006F0ABFE802006F0C6FE61
:101B20008C2006F0A5FE012006F0C0FE8D2006F0F8
:101B30009FFE012006F0BAFE8E2006F099FEFF20DF
:101B400006F0B4FE8F2006F093FEFF2006F0AEFEF6
:101B5000B62006F08DFE002006F0A8FE202006F03C
:101B6000A5FE362006F084FE082006F09FFE3A20EF
:101B700006F07EFE052006F099FE902006F078FE25
:101B8000082006F093FE082006F090FE082006F0DC
:101B90008DFE082006F08AFEBD2006F069FE0620B4
:101BA00006F084FEBC2006F063FE002006F07EFEF8
:101BB000FF2006F05DFE602006F078FE012006F0B2
:101BC00075FE042006F072FEC32006F051FE1320BD
:101BD00006F06CFEC42006F04BFE132006F066FEF5
:101BE000C92006F045FE222006F060FEBE2006F069
:101BF0003FFE112006F05AFEE12006F039FE1020CB
:101C000006F054FE0E2006F051FEDF2006F030FEF6
:101C1000212006F04BFE0C2006F048FE022006F0C4
:101C200045FEF02006F024FE452006F03FFE092088
:101C300006F03CFE082006F039FE082006F036FECD
:101C4000262006F033FE2A2006F030FEF12006F0B2
:101C50000FFE432006F02AFE702006F027FE7220B9
:101C600006F024FE362006F021FE372006F01EFE88
:101C70006F2006F01BFEF22006F0FAFD452006F06C
:101C800015FE092006F012FE082006F00FFE0820BF
:101C900006F00CFE262006F009FE2A2006F006FEBD
:101CA000F32006F0E5FD432006F000FE702006F06C
:101CB000FDFD722006F0FAFD362006F0F7FD372014
:101CC00006F0F4FD6F2006F0F1FDED2006F0D0FDEA
:101CD0001B2006F0EBFD0B2006F0E8FDAE2006F021
:101CE000C7FD772006F0E2FDCD2006F0C1FD6320A0
:101CF00006F0DCFD702006F0BBFD072006F0D6FDE7
:101D0000072006F0D3FD042006F0D0FD0E2006F0DB
:101D1000CDFD0F2006F0CAFD092006F0C7FD072003
:101D200006F0C4FD082006F0C1FD032006F0BEFD4C
:101D3000E82006F09DFD342006F0B8FD622006F094
:101D400097FD182006F0B2FD0D2006F0AFFD7120C2
:101D500006F0ACFDED2006F0A9FD702006F0A6FD12
:101D6000702006F0A3FD182006F0A0FD0F2006F05D
:101D70009DFD712006F09AFDEF2006F097FD702082
:101D800006F094FD702006F091FD632006F070FDD2
:101D9000182006F08BFD112006F088FD712006F05A
:101DA00085FDF12006F082FD702006F07FFD702099
:101DB00006F07CFD182006F079FD132006F076FD74
:101DC000712006F073FDF32006F070FD702006F020
:101DD0006DFD702006F06AFD642006F049FD2820A4
:101DE00006F064FD292006F061FDF12006F05EFD9D
:101DF000012006F05BFDF12006F058FD002006F002
:101E000055FD072006F052FD662006F031FD3C200E
:101E100006F04CFD002006F049FDCD2006F046FD01
:101E2000672006F043FD452006F040FD452006F002
:101E30003DFD102006F03AFD002006F037FD0020A1
:101E400006F034FD002006F031FD672006F010FD9D
:101E5000002006F02BFD3C2006F028FD002006F0B7
:101E600025FD002006F022FD002006F01FFD0120C8
:101E700006F01CFD542006F019FD102006F016FD9A
:101E8000322001E06003002006F010FD982006F0EB
:101E90000DFD742006F0ECFC102006F007FD8520F7
:101EA00006F004FD802006F001FD002006F0FEFC97
:101EB000002006F0FBFC4E2006F0F8FC002006F0A7
:101EC000F5FC982006F0D4FC3E2006F0EFFC07203D
:101ED00006F0ECFC352006F0CBFC012000F01AF8EF
:101EE000002000F063F8782000F084FC0120FFF768
:101EF0002FFD142000F07EFCF02300211A46084636
:101F00000094FFF743FD00F057F8BDE83840642027
:101F100000F006B808B1212000E0202006F0A8BC9F
:101F20004FF09043642800D808B1012200E000225D
:101F30002021184600F0EFBD2DE9F0411A4D9846DA
:101F40000C46904213D8F02A11D829784618571811
:101F50002A2006F08DFC300A06F0A8FCF0B206F04C
:101F6000A5FC380A06F0A2FCF8B206F09FFC404639
:101F7000844214D8F02812D869782B200C4408EB3E
:101F8000010506F075FC200A06F090FCE0B206F0B0
:101F90008DFC280A06F08AFCE8B206F087FCBDE852
:101FA000F0412C2006F064BC6003002008B1102032
:101FB00000E0112006F05CBC10B5EF2300211A46AA
:101FC0000846FFF7B9FF0122D1034FF0904000F01F
:101FD000A2FD00220821074800F09DFD4FF4614258
:101FE0004FF47A730449054803F050FBBDE81040F4
:101FF00006F07ABC00040048AC1800202806002037
:102000002DE9F84F00270446009790F85400DFF8B8
:10201000CC930D46B846012811D0012684F85460AF
:10202000206803F0CBFF60B1A06D40F02000A065F8
:102030005FF0010784F854803846BDE8F88F02202D
:10204000FBE768680C23052812D8022807D003286C
:1020500007D0042807D0052807D0062007E06B60CA
:1020600006E0122003E0182001E04FF48070686061
:10207000D5E90021206803EA91131844036B01F0AD
:102080001F014FF01F0C0CFA01FCC2F3846223EA1B
:102090000C038A4013430363206803F08FFF8246DA
:1020A000206803F087FF5AEA000025D1AA68296852
:1020B0002068B2F1004F20D003F08CFF2068416906
:1020C00021F00041416120686969C268C2F3C10220
:1020D000520091402A69042A17D000EB82002B6835
:1020E000026EDFF8FCC203F0F84302EA0C020B4375
:1020F0001A4342F0004101667AE0002203F06AFFD1
:102100002068416941F00041DCE7002103F04CFF09
:10211000400320684FF0000172D003F045FF90FAB1
:10212000A0F0B0FA80F1286842036ED090FAA0F0D7
:10213000B0FA80F0814204D100221146206803F0F9
:1021400058FF0121206803F02FFF400320684FF063
:1021500001015DD003F028FF90FAA0F0B0FA80F101
:102160002868420359D090FAA0F0B0FA80F081427A
:1021700004D100220121206803F03BFF02212068E6
:1021800003F012FF400320684FF0020148D003F033
:102190000BFF90FAA0F0B0FA80F12868420344D017
:1021A00090FAA0F0B0FA80F0814204D1002202211E
:1021B000206803F01EFF0321206803F0F5FE4003B2
:1021C00020684FF0030133D003F0EEFE90FAA0F048
:1021D000B0FA80F1286842032FD090FAA0F0B0FA4C
:1021E00080F0814204D100220321206803F001FF26
:1021F0002068816811F0010F22D0ABE000E004E01C
:1022000003F0D2FEC0F384618DE7C0F3846091E7F0
:1022100003F0CAFEC0F38461A2E7C0F38460A6E7BE
:1022200003F0C2FEC0F38461B7E7C0F38460BBE78C
:1022300003F0BAFEC0F38461CCE7C0F38460D0E75A
:102240002A7B296850F8B03FC1F3120C23EA0C0333
:1022500002F0180C634A22FA0CF20A40134303609E
:10226000E968494576D1286841031BD090FAA0F16E
:10227000B1FA81F1491C01F01F0109294FEA4031EF
:1022800031D8002911D090FAA0F1B1FA81F100BF44
:1022900001F1010101F01F0106FA01F608D1C0F3B6
:1022A000846109E0C0F38461E4E7C0F38461EFE78F
:1022B00090FAA0F1B1FA81F101F1010101F01F01E1
:1022C00046EA816102D1C0F3846003E090FAA0F095
:1022D000B0FA80F000F1010000F01F0000EB4000B8
:1022E00041EA005132E000290ED090FAA0F1B1FA93
:1022F00081F100BF01F1010101F01F0106FA01F6B1
:1023000005D1C0F3846106E0C0F38461F2E790FA7E
:10231000A0F1B1FA81F101F1010101F01F0146EADA
:10232000816102D1C0F3846003E090FAA0F0B0FABA
:1023300080F000F1010000F01F002B4A00EB40008C
:1023400002EB005041EA000141F00071AA682068E8
:1023500003F040FE25482A6802423FF46BAE244851
:102360008168244D244B01F0E071AA421AD10D027C
:1023700018D422689A427FF45DAE826841F400016D
:1023800022F0E0720A4382601C481D490068B0FBDD
:10239000F1F000EB4000800000E0401E00900028BB
:1023A000FBD147E6174DAA4207D1CD0105D42268DB
:1023B0009A42F6D141F080710AE06FF00045EA429E
:1023C000EFD14A02EDD422689A42EAD141F4800169
:1023D000826822F0E0720A4382602BE600007F40B0
:1023E00000F0FF03FFFF0700000020FE0000088050
:1023F00000030450000052C70000045000020020F7
:10240000400D0300000084CB0068006C70470000A2
:10241000F8B54FF0000504002E46009502D0A06DDF
:1024200010B107E00120F8BD204600F0C9F8E665CC
:1024300084F8546020688168C1F3407119B18168E3
:10244000574A1140816020688168C1F3007179B9F1
:102450008168544A114041F080518160524853498B
:102460000068B0FBF1F000E0401E00900028FBD1B6
:1024700020688168C1F3007141B9A16D41F010017C
:10248000A165E16D41F00101E165012503F096FDD3
:10249000A16D01F010010143A06D05D040F01000C6
:1024A000A06501252846F8BD20F4807040F00200A8
:1024B000A0652068806810F0010F0BD13C4880684F
:1024C00010F0010F06D13B4960688A6822F47C1243
:1024D00002438A60E168606B627E0843A16841EA5A
:1024E0004231084394F8201040EA0140012904D108
:1024F000A18C314A02EB41410843A16A29B101F4A0
:102500007071E26A014342EA01002168CA682B4BFC
:102510001A400243CA60206803F050FD0646206856
:1025200003F048FD304317D1207E94F8301080032B
:1025300040EA4100E16C08432168CA6844F206039E
:102540009A430243CA6094F8380001280CD02068EE
:10255000016921F001010161206901282068016BF6
:1025600021F00F0111D013E0D4E90F010843D4E9A1
:1025700011121143084321680A6940F2FC739A431F
:10258000104340F001000861E6E7E269521E114382
:102590000163A06D20F0020040F00100A06581E71A
:1025A000C0FFFF5FC0FFFF7F00020020400D03005F
:1025B00000000450000304500000FEFF07C0F0FFBD
:1025C00070B586B0044614216846FDF749FE1749E8
:1025D0002068884228D11648C16C41F40051C1647A
:1025E000C16C01F400510591C16C41F00101C1645D
:1025F000C16C01F001010591C16C41F00401C1649D
:10260000C06C102400F0040005900B2500268DE816
:10261000700069464FF0904000F0B4F98DE870000A
:102620006946044800F0AEF906B070BD00000450E1
:1026300000100240000800482DE9F04104464069BE
:102640000D4608280AD02068C068C00708D0A06DD1
:1026500040F02000A0650120BDE8F081082600E0E0
:10266000042600F05DFA074607E0681C05D000F07C
:1026700057FAC01BA8420FD875B1206800683042D5
:10268000F3D0A06D40F40070A065206803F09AFCC0
:10269000D0B1607E48B117E0A06D40F00400A065A5
:1026A000002084F854000320D6E720680068000763
:1026B0000AD5A06D20F48070A065A06DC00403D47D
:1026C000A06D40F00100A0652068C168082E05D00B
:1026D000490401D40C2101600020BDE70821FAE77C
:1026E00010B50446006803F069FC10B102210846E9
:1026F00010BD94F8540001280CD0012084F8540037
:102700002046FEF78DFA01004FF0000004D084F857
:102710005400ECE7022010BDA26D40F601639A431D
:1027200042F48072A265A26DD20404D5E26D22F05B
:102730000602E26500E0E06523681C221A6084F866
:1027400054002068C268920105D5A26D22F400529F
:1027500042F48052A2658268024B1A40121D8260C8
:10276000C5E70000C0FFFF7F10B5044690F8540095
:10277000012808D0012084F8540003212046FEF7E8
:10278000ADF910B10BE0022010BD2046FEF714FA9F
:1027900028B9A16D21F4885141F00101A165002102
:1027A00084F8541010BD10B590F8251000240229AB
:1027B00003D00421C16301241AE001680A6822F0F1
:1027C0000E020A6001680A6822F001020A6090F8AD
:1027D0004410036C01F01C02012101FA02F25A605C
:1027E00080F82510002180F82410816B01B1884702
:1027F000204610BD70B5044600F092F90546601CF5
:1028000002D004484068044400F08AF9401BA0420A
:10281000FAD370BDF40100202DE9F84F0023012602
:10282000DFF814C10F2780E006FA03F414EA01026E
:102830007AD023F003056544AA46D5F808909D0791
:102840004FEA157E07FA0EF505EA090B0095B0F17F
:10285000904F05D0394DA84205D14FF0010816E040
:102860004FF0000813E0364DA84202D14FF00208A5
:102870000DE0344DA84202D14FF0030807E0324D7D
:10288000A84202D14FF0040801E04FF0070808FA0F
:102890000EF8D84524D1DFF8B480D8F8009029EAA2
:1028A0000209C8F8009008F10408D8F8009029EA55
:1028B0000209C8F8009008F10408D8F8009029EA45
:1028C0000209C8F8009008F10408D8F800509543B0
:1028D000C8F80050009DDAF80820AA43CAF808207A
:1028E000D0F800804FEA4309032202FA09F248EACD
:1028F0000208C0F80080DD0800EB8505AA46D5F87F
:1029000020804FEA43794FEAD96907FA09F528EAA6
:102910000508CAF820808568954385604568A54309
:102920004560C4689443C4605B1C31FA03F27FF4D1
:102930007BAFBDE8F88F00000000014000040048B4
:1029400000080048000C0048001000480004014046
:10295000044A1F21916104490A68024201D00860BB
:10296000F6E770470070004014040140044910B5B8
:102970000A68024202D00860FFF7EAFF10BD0000BB
:10298000140401402DE9F84FDFF864B100234FF043
:10299000010C4FF0030A4FF00F090BF1040EA0E0F9
:1029A0000CFA03F6324072D04C68022C01D0122C83
:1029B0000ED1DC0800EB8408D8F820405D07EF0E4C
:1029C00009FA07F5AC430D69BD402543C8F820500E
:1029D00007685D0091F804800AFA05F408F003081E
:1029E000A74308FA05F848EA0708C0F800804F68CE
:1029F000012F05D0022F03D0112F01D0122F11D19A
:102A00008768D1F80C80A74308FA05F848EA070858
:102A1000C0F808804768B7430E79C6F300169E4099
:102A20003E434660C668A6438C68AC403443C460ED
:102A30004C68E40054D52F4C256E45F00105256601
:102A4000246E23F0030504F0010400942A4C2E198F
:102A5000B4689D072F0F09FA07F5AC43B0F1904F0A
:102A600004D0264DA84203D1012512E0002510E034
:102A7000234DA84201D102250BE0224DA84201D1ED
:102A8000032506E0204DA84202D1042501E027E0FD
:102A90000725BD402543B560DBF800405D464E6824
:102AA0009443F60300D514432C60DEF800407546CD
:102AB0004E689443B60300D514432C600C4D083582
:102AC0002C684E689443F60200D514432C60084DE0
:102AD0000C352C684E689443B60200D514432C6024
:102AE0005B1C0A6832FA03F47FF45AAFBDE8F88F32
:102AF00000040140001002400000014000040048B2
:102B000000080048000C0048001000480069084018
:102B100000D0012070470AB181617047816270471F
:102B20000148806870470000F401002090F84120BF
:102B3000202A24D190F84020012A20D0012280F8B8
:102B40004020242280F841200268136823F001030A
:102B500013600268136823F48053136002681368DB
:102B60000B43136001680A6842F001020A602021E9
:102B700080F84110002180F840100846704702207C
:102B8000704790F84120202A22D190F84020012A55
:102B90001ED0012280F84020242280F841200268C3
:102BA000136823F0010313600268136823F4706351
:102BB00043EA0121116001680A6842F001020A60DB
:102BC000202180F84110002180F84010084670470D
:102BD0000220704710B5040013D0242084F841006F
:102BE0002068016821F001010160204600F07CFBB3
:102BF0000020606484F8410044F8300FA074207411
:102C000010BD012010BD000070B5040004D094F880
:102C10004100002510B106E0012070BD84F840504D
:102C2000204600F0A3FB242084F8410020680168BE
:102C300021F0010101606068216820F07060086186
:102C40002068816821F400418160E0680128A06863
:102C500007D040F4044021688860E068022803D06F
:102C600006E040F40040F6E721684FF40060486059
:102C700020684168114A114341602068C16821F40D
:102C80000041C160D4E904010843A16940EA012080
:102C90002168C860D4E907010843216808602068FA
:102CA000016841F0010101606564202084F8410061
:102CB000256384F84250002070BD000000800002AF
:102CC0002DE9FC4700260446019690F841001F4676
:102CD0009246894620287ED120688069C04300043E
:102CE00079D594F84000012875D0012084F840007F
:102CF000242084F8410066644FF02008E068012831
:102D000009D029F4544040F4205021684860FFF76E
:102D100007FF05460DE0314949EA01003049084006
:102D2000F3E7781C05D0FFF7FBFE401BB84219D82B
:102D3000C7B1216888698969C0F34010C1F30011E7
:102D40000843EED0206880693B46C043C0064FF080
:102D500000024FF020012046009517D503F012F82D
:102D600068BB09E084F8418054F8440F40F020002B
:102D700044F80409267022E02168C1F81C8084F818
:102D8000418084F840600020BDE8FC8702F0FAFF33
:102D9000A8B921681020C8612168C1F81C80019879
:102DA000504512D12068416841F4804141603B4662
:102DB000002220212046009502F0E4FF10B10120FE
:102DC000E2E708E02168C1F81C800198401C0190EE
:102DD000504593D3C6E70220D6E70000002000024A
:102DE000FF2300022DE9F84F044690F84100DDF87A
:102DF00028A01F4690468B4620287ED194F840009C
:102E000001287AD0012084F84000FFF789FE0646A9
:102E1000012200901923D103204602F0B3FFE0BB4A
:102E2000222084F84100102084F8420000256564C7
:102E3000C4F8248067856563618D3148FF274FF0B2
:102E400080784FF00079FF2903D927853A46009012
:102E500039E0618D218500903AE05946204602F024
:102E60007BFF13E002F0BAFFB8B92068406A616ADC
:102E70000870606A401C6062208D401E80B2208510
:102E8000618D491E6185618D01B168B1608D3246E9
:102E9000002851462046E5D100E002E002F0E0FFC4
:102EA000D0B10120BDE8F88F534600228021204692
:102EB000009602F067FF0028F3D1608DFF2804D947
:102EC00027853A4600954346C7E7608D20850095E3
:102ED00094F828204B46C0E721682020C86121686B
:102EE0004A68084B1A404A6084F8410084F842500E
:102EF00084F840500020D5E7FFE70220D2E7000029
:102F00000024008000E800FE2DE9F84F044690F808
:102F10004100DDF828A01F4690468B4620287ED130
:102F200094F8400001287AD0012084F84000FFF78F
:102F3000F7FD0646012200901923D103204602F036
:102F400021FFE0BB212084F84100102084F84200DA
:102F500000256564C4F8248067856563618D314808
:102F6000FF274FF080784FF00079FF2903D927859C
:102F70003A46009039E0618D218500903AE059464B
:102F8000204602F0E9FE13E002F090FFB8B9606A53
:102F9000216800788862606A401C6062608D401E13
:102FA0006085208D401E80B22085618D01B168B1A1
:102FB000608D3246002851462046E5D100E002E00F
:102FC00002F04EFFD0B10120BDE8F88F5346002239
:102FD00080212046009602F0D5FE0028F3D1608DB6
:102FE000FF2804D927853A4600954346C7E7608DF8
:102FF0002085009594F828204B46C0E721682020C2
:10300000C86121684A68084B1A404A6084F8410048
:1030100084F8425084F840500020D5E7FFE70220B2
:10302000D2E700000020008000E800FE2DE9FF4FFD
:1030300083B00446DDE9108790F84100DDF8489040
:103040009A469346202874D15FEA080014D09FB1B5
:1030500094F8400001286CD0012084F84000FFF76C
:103060005FFD0646012200901923D103204602F09D
:1030700089FE002871D103E04FF4007060646CE0B9
:10308000222084F84100402084F842000025656435
:10309000C4F8248067856563CDE9009653465A4697
:1030A0002046049902F0F4FD10B184F8405054E039
:1030B000618D3548FF274FF080784FF0007AFF2967
:1030C00004D927853A464346009005E0618D218565
:1030D000009094F8282053462046049902F03CFEC4
:1030E0004B46002204212046009602F04BFEA0BB76
:1030F0002068406A616A0870606A401C6062208DC6
:10310000401E81B22185608D401E6085608DD8B1E2
:10311000D1B94B46002280212046009602F032FEB3
:10312000D8B9608DFF2805D927853A4643460095D2
:1031300006E026E0608D2085009594F8282053460F
:103140002046049902F008FE608D0028C8D132465E
:103150004946204602F084FE18B1012007B0BDE8C0
:10316000F08F21682020C86121684A68074B1A4007
:103170004A6084F8410084F8425084F840500020AE
:10318000ECE70220EAE700000024008000E800FEEF
:103190002DE9FF4F83B00446DDE9108790F8410028
:1031A000DDF848909A469346202871D15FEA0800DE
:1031B00014D09FB194F84000012869D0012084F810
:1031C0004000FFF7ADFC0646012200901923D10311
:1031D000204602F0D7FD00286ED103E04FF40070C6
:1031E000606469E0212084F84100402084F84200B6
:1031F00000256564C4F8248067856563CDE9009681
:1032000053465A462046049902F074FD10B184F8E2
:10321000405051E0608DFF274FF080784FF0007AEA
:10322000FF2804D927853A464346009505E0608D7E
:103230002085009594F8282053462046049902F0F2
:103240008BFD32464946204602F030FEA0BB606A44
:10325000216800788862606A401C6062608D401E50
:103260006085208D401E80B22085618DD9B1D0B996
:103270004B46002280212046009602F083FDD8B9FB
:10328000608DFF2805D927853A464346009506E01C
:1032900026E0608D2085009594F82820534620462E
:1032A000049902F059FD608D0028CAD13246494682
:1032B000204602F0D5FD18B1012007B0BDE8F08F1F
:1032C00020682021C16120684268064B1A40426094
:1032D00084F8411084F8425084F840500020ECE714
:1032E0000220EAE700E800FE10B51A4A01681A4811
:1032F00091420CD1816D21F40011816541154FF08F
:1033000090442046FFF788FA4FF480611BE0134A8F
:1033100091420BD1816D21F480018165104C5114D3
:103320002046FFF779FA4FF480410CE00D4A9142B4
:103330000ED1816D21F4000181650B4C01212046E5
:10334000FFF76AFA02212046BDE81040FFF764BA91
:1033500010BD000000540040001002400058004022
:1033600000040048005C00400008004870B586B0CA
:10337000044614216846FCF773FF2F4E25682F4C36
:103380001221012203200423B5421AD1E56C45F035
:103390000105E564E56C05F001050595450200951C
:1033A000CDE90112CDE9030369464FF09040FFF7E4
:1033B000E9FAA06D40F40010A065A06D00F40010C3
:1033C0001CE01F4EB5421CD1E56C45F00205E564DA
:1033D000E56C05F0020505954FF4C0450095CDE973
:1033E0000112CDE9030369461648FFF7CBFAA06D39
:1033F00040F48000A065A06D00F48000059006B048
:1034000070BD114EB542FAD1E56C45F00405E56496
:10341000E56C8DE8070003AE05F0040586E8290099
:1034200069460A48FFF7AEFAA06D40F40000A065B7
:10343000A06D00F40000E1E70054004000100240DD
:103440000058004000040048005C004000080048AC
:10345000024881684268114481607047F40100208D
:1034600010B50024032000F081F8002000F008F8D7
:1034700008B1012401E000F025F8204610BD00004D
:1034800070B50E4E05460024706898B14FF47A71FD
:10349000B1FBF0F00A490968B1FBF0F002F0B5F9B0
:1034A00040B9102D06D200222946501E00F03EF8E9
:1034B000356000E00124204670BD0000F4010020CA
:1034C00000020020094808B5016E41F001010166C3
:1034D000016E01F001010091816D41F08051816523
:1034E000806D00F08050009008BD00000010024088
:1034F00000280DDB00F01F020121914040098000EF
:1035000000F1E020C0F88011BFF34F8FBFF36F8F41
:103510007047002809DB00F01F020121914040099B
:10352000800000F1E020C0F800117047F0B40E4BAD
:103530001B680C46C3F30223C3F10705042D00D911
:103540000425191D072901D2002300E0DB1E0126F6
:1035500006FA05F1491E214099409E40761E16400C
:103560003143F0BC06F0CABE0CED00E0064900F0A5
:10357000070208684FF6FF03184040EA0220034A9A
:1035800010430860704700000CED00E00000FA05F1
:10359000BFF34F8F05480168054A01F4E06111430C
:1035A0000160BFF34F8F00BFFDE700000CED00E0AE
:1035B0000400FA0501220168C0F86822002280F8A0
:1035C000602231F8540F40F001000880088840F074
:1035D000020008801046704770B50F4D044669B16F
:1035E00001290AD1D4F8700206F021F8A069002858
:1035F00003D0286840F00600286070BDA06928B19B
:1036000005F096F9286820F006002860D4F87002CA
:10361000BDE8704005F082BF10ED00E010B50C066B
:1036200005D501F0070100EB4110283003E000EB65
:10363000411000F5947099B232B1012202730181F8
:10364000190C4181002010BD00220273C180F9E7EE
:1036500000EB4112D0F87002D26B05F019BE00EBFE
:103660004112D0F87002D2F83C2105F066BE10B5C8
:1036700004000CD0032084F82902204600F010FB3F
:10368000204600F059FA002084F8290210BD0120DC
:1036900010BD10B5044690F82802012809D0012079
:1036A00084F82802206806F060FC002084F82802D4
:1036B00010BD022010BD10B5044690F82802012864
:1036C00009D0012084F82802206806F055FC00206B
:1036D00084F8280210BD022010BD70B504460B0608
:1036E00001F0070004EB40114FF001024FF000051C
:1036F00003D581F82920283103E081F8295101F50B
:103700009471087094F82802012808D084F82822BF
:10371000206806F0A3FB84F82852002070BD022028
:1037200070BD70B5044601F00F006268904201D987
:10373000012070BD0B0601F0070004EB40114FF0B3
:1037400001024FF0000503D581F82920283103E05C
:1037500081F8295101F594718D70087094F8280250
:10376000012808D084F82822206806F025FC84F877
:103770002852002070BD022070BD10B5044690F89C
:10378000280201280AD0012084F82802080607D55B
:1037900001F00701206806F02FFD04E0022010BDB3
:1037A000206806F027FD002084F8280210BD01F0F3
:1037B000070100EB4110D0F8440170472DE9F041BA
:1037C00004460F0601F0070004EB40114FF001061C
:1037D0004FF0000503D581F82960283103E081F816
:1037E000295101F5947108700A61CB704A7802B1D1
:1037F000C881022B00D10D7194F82802012809D04C
:1038000084F82862206806F0F7F9284684F82852E0
:10381000BDE8F0810220FBE770B50C4601F007051A
:1038200000EB4511C1E94F230022C1F8442181F882
:10383000292181F8285101F594716207006806F08A
:1038400010FC002070BD70B504460D4601F0070065
:103850006168884201D9012070BD29064FF0000639
:103860004FF0010205D504EB401181F829202831E1
:1038700005E004EB451181F8296101F594718A7026
:10388000087094F82802012807D084F828222068BC
:1038900006F0CEFB680702D006E0022070BD04F5FA
:1038A0000C71206806F086FB84F82862002070BD49
:1038B00070B50C4601F0070500EB4511C1E90F2377
:1038C00000224A64012281F8292001F8285F62075A
:1038D000006806F0C6FB002070BD10B50446006805
:1038E00006F092FC000402D5204603F0D9FA2068C5
:1038F00006F08AFC40050CD5206830F8441F21F4FE
:1039000080610180204600F06BF90021204600F024
:1039100097F9206806F078FC400405D5206830F857
:10392000441F21F480410180206806F06DFC800472
:1039300005D5206830F8441F21F40051018020682B
:1039400006F062FCC0041FD5206830F8401F21F04B
:1039500004010180206830F8401F21F00801018037
:1039600094F86002012806D1002084F86002014624
:103970002046FFF731FE204600F046F9206830F877
:10398000441F21F480510180206806F03DFC0005B1
:103990001AD5206830F8401F41F0080101802068E6
:1039A00030F8441F21F400610180206830F8401F86
:1039B00041F004010180206806F026FCC043C004E9
:1039C00002D5204600F08AF9206806F01DFC0006AA
:1039D0000BD5206830F8441F21F08001018094F855
:1039E0006002E0B1204600F079F9206806F00CFC96
:1039F000800508D5206830F8441F21F4007101804B
:103A0000204600F019F9206806F0FEFBC00505D538
:103A1000206830F8441F21F48071018010BD2068B7
:103A200030F8401F41F004010180206830F8401F49
:103A300041F008010180012084F860022068B0F89C
:103A400054003C2101EA9000C4F8640201212046A0
:103A5000FFF7C2FDC9E700002DE9F04186B0040080
:103A600004D094F82902002520B108E0012006B016
:103A7000BDE8F08184F82852204600F077F8032052
:103A800084F82902206806F08DFA04F1100114224E
:103A900088466846FCF7CBFB94E80F0006F0DCF99B
:103AA0000227B0BB0021206806F0C5FB00200126DC
:103AB0000DE000BF04EB401181F8296001F8280FE8
:103AC000C881CD700D614D61401CC0B28D616168CF
:103AD0008142EFD800200FE004EB401181F829511A
:103AE00081F8280181F82B51C1F83851C1F83C51B7
:103AF000401CC0B2C1F8405161688142ECD8142228
:103B000041466846FCF793FB94E80F0006F03BFA49
:103B100010B184F82972A9E784F8245084F8296246
:103B2000E069012802D12046FFF744FD206806F035
:103B300023FA00209BE7000010B50068094988427D
:103B40000FD10948816D21F0806181654FF4C0512A
:103B50004FF09040FEF760FEBDE810404320FFF7B5
:103B6000C7BC10BD006800400010024010B586B010
:103B7000044614216846FCF773FB17492068884205
:103B800028D1164CE06C40F00100E064E06C69461E
:103B900000F0010005904FF4C05000900220019009
:103BA00000200290032003900A2004904FF09040E0
:103BB000FEF7E8FEA06D40F08060A065A06D0022D9
:103BC00000F08060059011464320FFF7AFFC4320D2
:103BD000FFF79FFC06B010BD0068004000100240D7
:103BE00070B5044680680125022801D0FDF782FEE9
:103BF0002946D4F8700205F0A7FCD4F87002BDE89D
:103C0000704005F062BC000010B50446806930B118
:103C10000748016821F00601016004F089FE0549AA
:103C20000A200860D4F87002BDE8104005F076BCA8
:103C300010ED00E06C000020D0F8700205F078BCB8
:103C400010B5044690F8280201280BD0012084F812
:103C5000280284F82410206806F0EFFA002084F887
:103C6000280210BD022010BDD0F8702200F50C71A2
:103C7000104605F07CBC10B5044690F828020128D7
:103C80000CD0012084F82802206806F06EF9206824
:103C900006F0A8FA002084F8280210BD022010BD0A
:103CA00070B5044690F8280201280ED0012084F84F
:103CB0002802206806F076F9206806F0C4FA00258C
:103CC00028B184F82852012070BD022070BD206800
:103CD00006F052F984F82852002070BD10B5044651
:103CE000D0F8700205F0A3FCA06920B10448016877
:103CF00041F00601016003490020086010BD00008A
:103D000010ED00E06C0000201649B0F5007F086857
:103D1000C0F3412009D0022805D0086820F4C06013
:103D200040F480600860002070470128FBD00868DC
:103D300020F4C06040F4007008600B483222006834
:103D400050430A4AB0FBF2F0401C00E0401E4A69B2
:103D5000520501D50028F9D148694005E3D5032073
:103D600070470000007000400002002040420F0039
:103D70000248416841F48061416070470070004032
:103D80000A490A6822F007020A6009490A6842F0F3
:103D900004020A60012807D040BF20BF20BF086886
:103DA00020F004000860704730BFF8E70070004062
:103DB00010ED00E00B490A6822F00702521C0A606D
:103DC00009490A6842F004020A60012807D040BF8E
:103DD00020BF20BF086820F004000860704730BF93
:103DE000F8E700000070004010ED00E002480068B5
:103DF00000F4C06070470000007000400248016895
:103E000041F480710160704700700040B0F5804F50
:103E1000084601D0FFF7B4BFFFF7CCBFF8B50446A2
:103E2000FEF77EFE064624B194F84100002510B14D
:103E300009E00120F8BD84F84050204600F042F827
:103E400041F28830A06420680168A2686FF0FF0327
:103E500021F4706103EB022211430160A06C009019
:103E6000334600222021204603F069F910BBE269A5
:103E7000E16823791143226A42EA0362114322680E
:103E800013680E4E334019431160D4E905121143F3
:103E9000226853680A4E3340268A43EA0643194390
:103EA000516021680A6842F001020A6065640121DC
:103EB00084F8411084F84050F8BD00002FFFFF0047
:103EC000FEF8E0FF10B586B0044614216846FCF702
:103ED000C7F91349206888421FD11248016D41F487
:103EE00080710165016D01F480710591C16C41F033
:103EF0000201C164C06C694600F00200059040F602
:103F000003400090022001900020029003200390C3
:103F10000A2004900448FEF735FD06B010BD0000ED
:103F2000001000A000100240000400482DE9F84FE6
:103F3000044600270088C04D3E46000515D5E06CBC
:103F400060B1B0F5000F04D0B0F5400F2BD00127C1
:103F50000AE0E86840F48030E86024E00021201D99
:103F600003F012F907001ED03E46206880033AD5C0
:103F7000A86D4FF00008C00009D4A86D40F0805033
:103F8000A865A86D4FF0010800F080500090DFF8A0
:103F9000ACA2DAF8001041F48071CAF80010FEF704
:103FA000BFFD814610E0D5F88800E16C20F44000A8
:103FB0000843C5F88800D8E7FEF7B2FDA0EB09007A
:103FC000022801D9032705E0DAF80000C005F3D57F
:103FD000002F7CD04FEA0706B8F1000F03D0A86D80
:103FE00020F08050A8652078C00707D0D5F8880059
:103FF000216A20F003000843C5F888002078800774
:1040000007D5D5F88800616A20F00C000843C5F890
:1040100088002078400707D5D5F88800A16A20F0ED
:1040200030000843C5F888002078000707D5D5F888
:104030008800E16A20F0C0000843C5F888002078B5
:10404000800607D5D5F88800216B20F4406008432E
:10405000C5F888002088800507D5D5F88800616CF0
:1040600020F440200843C5F888002088400507D583
:10407000D5F88800A16C20F440100843C5F88800EA
:104080002078400607D5D5F88800616B20F44050B1
:104090000843C5F888002078000607D5D5F88800C1
:1040A000A16B20F440400843C5F888002088C00573
:1040B00007D5D5F88800E16B20F440300843C5F8F7
:1040C00088002068C00209D5D5F89C0000E01CE0FB
:1040D000216C20F003000843C5F89C0020884FF0B5
:1040E000006780044FF080684ED5D5F88800216DB8
:1040F00020F040600843C5F88800206DB8423BD1ED
:10410000E86840F48010E8603EE0D5F8900010F4D4
:10411000407014D0616E814211D0D5F89000D5F86E
:10412000901020F4407041F48031C5F89010D5F81B
:10413000901021F48031C5F89010C5F89000C007A8
:1041400011D0FEF7EDFC074640F2DC5907E000BF56
:10415000FEF7E6FCC11B494501D903263CE7D5F82B
:1041600090008007F4D5D5F89000616E20F440707F
:104170000843C5F890002FE7404505D10121201DD7
:1041800003F002F800B106462068000317D5D5F801
:104190008800616D20F040600843C5F88800606DBC
:1041A000B84204D1E86840F48010E86007E0404578
:1041B00005D10121201D02F0E7FF00B1064620686D
:1041C000400317D5D5F88800A16D20F04060084362
:1041D000C5F88800A06DB84204D1E86840F48010AA
:1041E000E86007E0404505D10121201D02F0CCFF29
:1041F00000B106462088400411D5D5F88800E16D4D
:1042000020F040500843C5F88800E06DB0F1805FB1
:1042100005D10221201D02F0B7FF00B1064620683B
:10422000C00306D555F8880F216E20F000400843E2
:1042300028603046BDE8F88F001002400070004052
:104240002DE9F0470F46050058D0404E306800F089
:104250000700B84209D2306820F0070038433060C8
:10426000306800F00700B84248D12878384CC007C1
:104270002CD06868032811D0022812D0216898B188
:10428000490500293ADAA16821F003010143A16040
:10429000FEF746FC804641F2883910E0216889012A
:1042A000EFE721688903ECE78907EAE7FEF738FCC6
:1042B000A0EB0801494502D90320BDE8F087A068BA
:1042C000696800F00C00B0EB810FEFD1287880070F
:1042D00005D5A068A96820F0F0000843A060306808
:1042E00000F00700B8420BD9306820F007003843CF
:1042F0003060306800F00700B84201D00120DCE7F0
:104300002878400705D5A068E96820F4E0600843F4
:10431000A0602878000706D5A068296920F46050BD
:1043200040EAC100A06000F03FF8A168094AC1F36B
:104330000311515C01F01F01C8400749086007489C
:104340000068BDE8F047FFF79BB80000002002407E
:10435000001002405C1A010800020020F401002055
:104360000548064900688968054AC1F30221515C85
:1043700001F01F01C84070470002002000100240F9
:104380009C1A01080548064900688968054AC1F376
:10439000C221515C01F01F01C8407047000200209B
:1043A000001002409C1A010830B521490022104635
:1043B0008B6813F00C04CB6803F003051D4B09D088
:1043C0000C2C05D0042C01D0082C00D1184630BD8F
:1043D000012D10D10A68120704D4D1F89420C2F339
:1043E000032202E00A68C2F30312134D55F822209B
:1043F0004CB10C2CEBD1C86800F00300022804D0AB
:10440000032803D101E0104630BD1A46C868CB68C6
:10441000C0F30210C3F306235343401CB3FBF0F276
:10442000C868C0F34160401C4000B2FBF0F030BDF2
:10443000001002400024F4006C1A01082DE9F84F26
:1044400004006ED0FD4DA86800F00C06E86800F08E
:1044500003072078C00663D576B10C2E01D1012F59
:104460000AD0A0690028286878D040F001002860B0
:10447000FEF756FB80465BE02868800702D5A069FE
:104480000028DED0216A2868000703D5286800F0DC
:10449000F00004E0D5F89400F02202EA1010814206
:1044A00016D9084602F006FF00283AD1286840F0E5
:1044B000080028602868216A20F0F000084328607E
:1044C0006868E16920F47F4040EA0120686015E0F7
:1044D000286840F0080028602868216A20F0F00071
:1044E000084328606868E16920F47F4040EA0120C1
:1044F0006860206A02F0DEFE0028D6D1FFF754FF84
:10450000A968CF4AC1F30311515C01F01F01C840F3
:10451000CC490860CC480068FEF7B2FF00287DD186
:104520002DE0CBE0FEF7FCFAA0EB0800022876D8DD
:1045300028688007F6D5286840F0080028602868B9
:10454000216A20F0F000084328606868E16920F4DF
:104550007F4040EA0120686011E0FFE720F00100A1
:104560002860FEF7DDFA804606E000BFFEF7D8FAC5
:10457000A0EB08000228DAD828688007F6D4207853
:1045800040F2DC58C00740D0082E18D00C2E01D1C4
:10459000032F14D06068B0F5803F17D0B0F5A02F7E
:1045A000286817D020F480302860286820F4802004
:1045B00028606068E0B1FEF7B3FA814614E028682D
:1045C000800322D56068002878D01EE0286840F477
:1045D0008030EDE740F480202860F7E7FEF7A0FA8E
:1045E000A0EB09014145A2D828688003F6D50CE06C
:1045F000FEF796FA814605E0FEF792FAA0EB090174
:10460000414594D828688003F6D4207880073BD5AC
:10461000042E11D00C2E04D1022F01E064E1B8E089
:104620000AD0E068002828681ED040F48070286016
:10463000FEF776FA07460CE0286840050CD5E068DE
:104640000028C1D008E000BFFEF76AFAC01B0228AC
:1046500091D828684005F7D56868217C20F0FE4095
:1046600040EA016068600FE020F480702860FEF787
:1046700057FA074605E000BFFEF752FAC01B0228B2
:10468000B1D828684005F7D42078000729D560699B
:104690000028D5F8940012D040F00100C5F894002D
:1046A000FEF73EFA074604E0FEF73AFAC01B02287E
:1046B0006FD8D5F894008007F6D512E04AE120F0D3
:1046C0000100C5F89400FEF72BFA074605E000BF8D
:1046D000FEF726FAC01B02285BD8D5F894008007A5
:1046E000F6D42078400764D5A86D0027C00008D410
:1046F000A86D40F08050A865A86D012700F080509B
:10470000009052480168C90512D40168824641F4FC
:1047100080710160FEF704FA814605E0FEF700FAB9
:10472000A0EB0900022834D8DAF80000C005F5D55E
:10473000A068012814D00528D5F8900015D020F0E5
:104740000100C5F89000D5F8900020F0040000BFEB
:10475000C5F89000A068C0B1FEF7E2F981460FE00D
:10476000D5F8900040F00100F2E740F00400C5F8F1
:104770009000F5E7FEF7D4F9A0EB0901414508D810
:10478000D5F890008007F5D50EE0FEF7C9F981460F
:1047900006E07CE0FEF7C4F9A0EB0901414576D8BC
:1047A000D5F890008007F5D41FB1A86D20F0805097
:1047B000A8652078800628D5606A0028D5F898007A
:1047C00012D040F00100C5F89800FEF7A9F907469D
:1047D00005E000BFFEF7A4F9C01B022857D8D5F8A2
:1047E00098008007F6D510E020F00100C5F8980089
:1047F000FEF796F9074604E0FEF792F9C01B02287F
:1048000071D8D5F898008007F6D4A06AF0B30C2EC2
:1048100071D00228286820F0807028601AD028689B
:10482000000103D4E86820F00300E860E868084964
:104830000840E860FEF774F9044657E000100240B3
:104840005C1A010800020020F40100200070004002
:10485000FFFFEEFEFEF764F9064604E0FEF760F99E
:10486000801B02283FD828688001F7D4F4E90B01A7
:104870006FF00F0202EB01110843218A490852042C
:1048800002EB4151A26841EA022101E064E02AE022
:104890000843217D4FF07E42490802EB4161084305
:1048A000217B40EAC160E9682C4A11400843E86076
:1048B000286840F080702860E86840F08070E86008
:1048C000FEF72EF9044604E0FEF72AF9001B022841
:1048D00009D828688001F7D53EE000BFFEF720F92F
:1048E000001B022802D90320BDE8F88F2868800148
:1048F000F4D431E0FFE70128F6D0E868E26A00F07E
:104900000301914226D1216B00F070020901103998
:1049100091421FD1626B00F4FE41B1EB022F19D11D
:1049200094F8382000F07841B1EBC26F12D1A18F1A
:1049300000F4C00249084905A1F50011914209D1CE
:1049400094F8401000F0C06049084906A1F10071D8
:10495000814201D00120C7E70020C5E78C809D017E
:104960000068503050F82100704708B5006850309A
:1049700000EB81000090026008BD000010B50068E7
:104980000B4641680D480140080CD870C1F304245F
:104990005C7001F03F049C70C1F34231197052B950
:1049A00002F0C6FCD870587802F0C2FC58709878B3
:1049B00002F0BEFC9870002010BD00003FFFFF0019
:1049C00010B50B460168896A596001680969C1F32D
:1049D0000E019960006801680D480140C1F305406F
:1049E0001870C1F306245C7001F07F049C70890D7F
:1049F000D97052B902F09CFC1870587802F098FCFB
:104A00005870987802F094FC9870002010BD000057
:104A10007F7F7F0010B504004FF0010044D094F870
:104A2000210028B9002084F82000204600F040F83A
:104A3000022084F821002168CA204862216853209E
:104A40004862204602F08AFC00282DD12068816847
:104A5000164A11408160216888686268A369104322
:104A600022691A43104388602168E0680861206861
:104A70000169228941EA02410161204602F092FC6B
:104A8000002811D12168CA6C22F00302CA6462694D
:104A9000E16911432268D36C1943D1642268FF2174
:104AA0005162012184F8211010BD0000BFFF8FFF6B
:104AB00000680549884205D1044850F8901F41F428
:104AC00000410160704700000028004000100240D3
:104AD0002DE9F05F044690F820000B46012844D0F1
:104AE000012084F82000022084F82100206800269C
:104AF00080684FEA4060BAB3002800DBDE70987827
:104B00001978DA7840EA01405978090241EA82517D
:104B1000084393F8201040EA0165D8695F680543AF
:104B200058692168054398690743CA20486221688B
:104B300053204862586A4FF0FF08B0F5807F206824
:104B40004FF0030B4FF47A7A81682BD021F4007177
:104B500081602068C16801F0800161F42071C1604A
:104B6000FDF7DEFF814652E002E00220BDE8F09F43
:104B7000002800DBDE70187802F0E3FB05045878AB
:104B800002F0DFFB45EA0025987802F0DAFB0543E6
:104B9000D87845EA805593F8200002F0D2FB45EA28
:104BA0000065BAE721F4807181602068C16801F076
:104BB000800161F4C071C160FDF7B2FF814605E07C
:104BC000FDF7AEFFA0EB0900504517D82068C0687C
:104BD000C007F5D02068C5612068476420688168F7
:104BE00041F4807181602068816841F480511FE048
:104BF000FDF796FFA0EB0900504508D92168C1F8E0
:104C0000248084F821B084F820600320AEE7206877
:104C1000C0688007ECD5206805622068876420683A
:104C2000816841F4007181602068816841F400511D
:104C300081600A48016841F480210160074808301A
:104C4000016841F4802101602168C1F824800120BD
:104C500084F8210084F82060002087E700040140E8
:104C600070B5044690F820000B4601281BD00126A1
:104C700084F82060022084F82100B2B19878D978B5
:104C800040EA014558781978000240EA413005436E
:104C90002168CA204862216853204862204602F0F9
:104CA0005DFBD0B120E0022070BD5878C10603D56D
:104CB00000F0EF000A305870D87802F042FB05048B
:104CC000587802F03EFB45EA0025987802F039FB5F
:104CD0000543187845EA4035DAE70848054020687A
:104CE0004560204602F05EFB2268FF21516208B950
:104CF00084F82160002184F8201070BD3FFFFF0080
:104D00002DE9F041044690F8200090460D46012818
:104D100011D0012784F82070022084F82100216836
:104D2000CA204862216853204862204602F016FBE0
:104D3000002618B129E00220BDE8F0812068B8F112
:104D4000000F80684FEA406024D0002800DBEE703E
:104D5000A8782978EA7840EA01406978090241EAAE
:104D6000825108431849084021680860206881681A
:104D700021F480218160D5E90301084321688A6814
:104D800010438860204602F00DFB2268FF2151622B
:104D9000A0B115E0002800DBEE70287802F0D1FA0F
:104DA0000304687802F0CDFA43EA0023A87802F001
:104DB000C8FA0343E87843EA8050D3E784F82170C7
:104DC00084F82060B8E700007F7F7F0070B504465C
:104DD0000068C16821F0A001C160FDF7A1FE054691
:104DE0004FF47A7607E000BFFDF79AFE401BB04211
:104DF00001D9032070BD2068C0688006F4D500206A
:104E000070BD10B504000DD0032084F83400206874
:104E100003F024FA204600F043F90020A06384F850
:104E2000340010BD012010BDF0B5426E920F0A7023
:104E3000426EC2F383624A70426EC2F301628A70AC
:104E4000426E120CCA70B0F86420120A0A7190F80F
:104E500064204A71826E120DCA80826EC2F30342D0
:104E60000A72B0F86820C2F3C0324A72B0F8682003
:104E7000C2F380328A72B0F86820C2F34032CA723C
:104E8000B0F86820C2F300320A7300264E73426CF9
:104E90004FF40075012462B1012A3AD002684749F3
:104EA0009163816B41F08051816380F8344001202F
:104EB000F0BDB0F86820C36E9205120D42EA9372FD
:104EC0000A61C26EC2F3C2620A75C26EC2F30262A6
:104ED0004A75C26EC2F342528A75C26EC2F38242F2
:104EE000CA75C26EC2F3C2320A760A69521C4265A2
:104EF0000B7E03F007039B1C9A4042650B7A03F07C
:104F00000F0704FA07F383655B0A5A43C0E91725C4
:104F10000EE090F86820C36E9206920A42EA1342AD
:104F20000A610A69521C92024265C0E9165205667E
:104F300030F86C2FC2F3803201F8192F0288C2F3C7
:104F4000C6124A70027802F07F028A704268D20F5D
:104F5000CA704268C2F341720A714268C2F3826247
:104F60004A714268C2F383528A714268C2F3405266
:104F7000CA710E724268C2F300424A728288C2F35A
:104F8000C0328A728288C2F38032CA728288C2F3C7
:104F900040320A738288C2F300324A738288C2F3B5
:104FA00081228A738288C2F30122CA730079C0F316
:104FB000460008744C740020F0BD0000FF0540005E
:104FC000426C0A60826C4A60C26C8A60026DCA6080
:104FD000426D0A61826D4A61C26D8A61006EC8616C
:104FE0000020704770B50446B0F850000025010459
:104FF000206802F06EFF18B1A16B0143A16304E0C9
:105000000021206803F016F90546C5F3432070BD62
:1050100070B504000ED094F83400002518B9257737
:10502000204600F05BF8032084F83400204600F0AE
:105030000AF808B1012070BDA5632563012084F83A
:105040003400002070BD3EB500210446762000915A
:10505000CDE901100B460A46206803F0EEF840B98E
:105060002068416821F480714160206803F0FAF8FB
:1050700008B101203EBD2068416841F48071416063
:10508000204603F097F9012520B9204603F01AF9CC
:105090000028EFD084F83450A16B0143A163E8E706
:1050A00010B50068094988420FD10948016E21F402
:1050B000806101664FF488510648FDF7ADFBBDE8FD
:1050C000104004210448FDF7A7BB10BD0028014093
:1050D0000010024000080048000C0048F0B587B0FE
:1050E000044614216846FBF7BBF81949206888423A
:1050F0002BD11848016E41F480610166016E01F404
:1051000080610591C16C41F00401C164C16C01F082
:1051100004010591C16C41F00801C164C06C022416
:1051200000F0080005904FF48850002503260C2756
:105130008DE8F10069460848FDF724FC04208DE85D
:10514000F10069460548FDF71DFC07B0F0BD000001
:10515000002801400010024000080048000C0048F0
:105160002DE9F04F87B09B4616460D460446FDF7E5
:10517000D7FC00903DB194F83400012807D0A06B13
:1051800040F000500DE0A06B40F0006009E0002707
:10519000A763E16D06EB0B00884204D9A06B40F0D9
:1051A0000070A06395E0032084F834002068C76293
:1051B000606C012800D076024FF40071206802F084
:1051C00095FDDFF890A1012140B12368C3F838A014
:1051D000A26B0243A26384F834107AE04FF0FF30F0
:1051E00001904FEA4B200290902003900220CDE9DD
:1051F000040706918846B94601A9206802F0E6FE38
:10520000BBF1010F06D9022020633146206802F06D
:10521000E9FD05E0C4F830803146206802F0FBFD6E
:1052200030B12268C2F838A0A16B0143A1634CE001
:10523000029E1FE0406B000413D596B10027206842
:1052400003F018F805F8010B010A05F8011B010C21
:1052500005F8021B000E361F7F1C05F8010C082FF5
:10526000EDD3FDF75DFC01460098091A10988142C4
:105270001CD2D8B12068416B11F4957FDAD0416B14
:10528000C90509D5BBF1010F06D9616C032903D00B
:1052900002F050FE0028C4D12068416B09071AD5DE
:1052A000C0F838A0A06B40F0080051E02168C1F8B8
:1052B00038A0A06B40F00040A06384F83480C4F8AC
:1052C0003090032007B0BDE8F08F84F83480C4F834
:1052D00030900120F6E7416B890705D5C0F838A06A
:1052E000A06B40F0020033E0416B89061CD5C0F88A
:1052F00038A0A06B40F020002AE000BF02F0BAFF07
:1053000005F8010B010A05F8011B010C05F8021B49
:10531000000E05F8010C361FFDF702FC0099411A3A
:10532000109881420ED268B12068416B890201D584
:10533000002EE3D1216840F23A50886384F834802B
:105340000020BFE72168C1F838A0A06B40F0004002
:10535000A063BAE7FF0540002DE9FF4F8DB0164668
:105360000D460446FDF7DCFB0B903DB194F834008C
:10537000012807D0A06B40F000500DE0A06B40F07A
:10538000006009E00027A7631098E16D304488426F
:1053900004D9A06B40F00070A0638BE0032084F878
:1053A00034002068C762606C012800D076024FF498
:1053B0000071206802F09AFCDFF864B1012140B16D
:1053C0002368C3F838B0A26B0243A26384F8341098
:1053D00070E04FF0FF30039010988946400204902F
:1053E0009020CDE90507CDE90771BA4603A92068E9
:1053F00002F0ECFD1098012806D9202020633146E8
:10540000206802F0B1FD05E01020206331462068DD
:1054100002F0C3FD5FEA000806D02168C1F838B089
:10542000A06B40EA080071E0049E27E0406B400456
:105430001CD5DEB15FF0000715F8010B009015F8E0
:10544000011B361F40EA0120009015F8021B40EABC
:105450000140009015F8011C40EA01600090694687
:10546000206802F01AFF7F1C082FE5D3FDF758FBD8
:105470000B99411A1A98814220D2F8B12068416BE9
:1054800011F48D7FD2D0416BC90524D51099012923
:1054900021D9616C03291ED002F04CFDD8B12268DD
:1054A000C2F838B0A16B0143C4F8381084F83490C6
:1054B000C4F830A0012011B0BDE8F08F2168C1F818
:1054C00038B0A06B40EA0800A06384F83490C4F8B8
:1054D00030A00320EFE72068416B090705D5C0F82D
:1054E00038B0A06B40F0080010E0416B890705D58B
:1054F000C0F838B0A06B40F0020007E0416BC9066D
:1055000006D5C0F838B0A06B40F01000A063CDE71E
:1055100040F23A51816384F834900020CBE70000D8
:10552000FF05400010B5040011D0022084F85D0092
:105530002068016821F040010160204600F060F819
:105540000020206684F85D0084F85C0010BD012016
:1055500010BD2DE9F041040005D00025A56294F8A6
:105560005D0018B107E00120BDE8F08184F85C50CF
:10557000204600F059F8022384F85D302068016865
:1055800021F040010160E0684FF4E066B04201D9CB
:10559000002101E04FF48051B0F5706F02D0B042AD
:1055A00000D0A562276B012227B9B04201D923633D
:1055B00000E02263D4E901031843D4E904363343FD
:1055C0001843238B03F400731843E3691843236AD9
:1055D0001843A36A184323681860636B606AA6695E
:1055E00018430427E36807EA164633431843084381
:1055F00021684860256684F85D200020B4E700003B
:1056000000680749884209D10648016E21F480519B
:10561000016682214FF09040FDF7FEB87047000010
:10562000003001400010024010B586B0044614213D
:105630006846FAF715FE1349206888421FD11248C0
:10564000016E41F480510166016E01F480510591B3
:10565000C16C41F00101C164C06C694600F00100F9
:105660000590C220009002200190002002900320AB
:105670000390052004904FF09040FDF783F906B0A9
:1056800010BD000000300140001002402DE9F84F2D
:10569000044690F85C0000271D46164689460128FE
:1056A0000DD04FF0010B84F85CB0FDF739FA80465D
:1056B00094F85D00BA46012804D002279FE002203A
:1056C000BDE8F88FB9F1000F6FD0002E6DD0032028
:1056D00084F85D00C4F860A0C4F83890A687E68717
:1056E000C4F840A0A4F844A0A4F846A0C4F850A070
:1056F000C4F84CA0A068B0F5004F04D12068016840
:1057000041F48041016020680168490603D40168C2
:1057100041F040010160E068B0F5E06F606823D9B6
:1057200008B1012E1CD1A06B21680088C86006E07A
:1057300020688168890709D5A16B0988C160A06BC1
:10574000801CA063E08F401EE08709E0FDF7E8F9C8
:10575000A0EB0800A84202D3681C01D046E0ADB31C
:10576000E08F0028E4D136E008B1012E30D1E08F7F
:105770000128A06B03D921680088C8600FE0216868
:105780000078087314E0E08722E0206881688907C8
:1057900014D5E18F0129A16B08D90988C160A06BDC
:1057A000801CA063E08F801EEDE727E0097801737D
:1057B000A06B401CA063E08F401EE4E7FDF7B0F94A
:1057C000A0EB0800A84202D3681C01D00EE06DB126
:1057D000E08F0028D9D142462946204602F04FFFEB
:1057E00008B120202066A06810B105E0032706E07C
:1057F0002068C16880680090206E00B1012784F89D
:105800005DB084F85CA038465AE710B5401EB0F190
:10581000807F01D3012010BD4FF0E02460610F2193
:10582000601704F06BFD0020A061072020610020BC
:1058300010BD7047704700002DE9F0410268044632
:10584000D0691168936810F00F0F4FF000055BD01E
:1058500003F0010601F49077374369D0C70707D0FA
:10586000CF0505D501271762E26F42F00102E2671A
:10587000820708D5DA0706D0276802223A62E26F6B
:1058800042F00402E267420708D5DA0706D023682F
:1058900004221A62E26F42F00202E26702070AD5AE
:1058A00001F02002324306D0236808221A62E26F18
:1058B00042F00802E267E26F002A32D0800605D586
:1058C000880603D5216E09B120468847E06F21681C
:1058D0008968490601D4000725D5204603F054F90C
:1058E00020688168490619D5816821F040018160EE
:1058F000E06E98B120498163E06EFCF754FF002808
:105900000FD0E06E816B06E0860611D58E060FD5AE
:10591000216E1EE02046BDE8F04108472046FFF713
:1059200089FFBDE8F0812046FFF784FFE567F8E7CF
:10593000C60209D55B0207D54FF4801010622046DD
:10594000BDE8F041FFF775BF030605D50B0603D58B
:10595000616E0029DED1E4E74006E2D54806E0D5D5
:105960001168204621F040011160202161676566C1
:1059700000F038F9D5E70000758B000810B5040079
:1059800002D0606F10B107E0012010BD002084F844
:105990007000204600F026F8242060672068016827
:1059A00021F001010160204603F058F90128ECD0F4
:1059B000606A10B1204603F04DF82068416821F478
:1059C000904141602068816821F02A01816020684F
:1059D000016841F0010101602046BDE8104003F07C
:1059E0009DB8000010B586B0044614216846FAF749
:1059F00037FC1349206888421FD11248816D41F459
:105A000000318165816D01F400310591C16C41F077
:105A10000101C164C06C694600F0010005900C20D2
:105A200000900220019000200290032003900720A4
:105A300004904FF09040FCF7A5FF06B010BD0000A9
:105A4000004400400010024030B5836F202B4BD142
:105A5000B1B1AAB190F87030012B45D0012380F884
:105A600070304165A0F85820A0F85A200021016646
:105A70001D038268FF23AA4207D1026912B125E003
:105A8000012030BD40F2FF1226E07F24E2B1B2F1E6
:105A9000805F1ED0A0F85C10C16722228267026876
:105AA000936843F0010393608268AA4201D10269BE
:105AB000C2B10E4A026680F870100068016841F4B5
:105AC00090710160002030BD026942B9A0F85C30DD
:105AD000E2E702691AB13F22A0F85C20DCE7A0F8F7
