:020000040800F2
:10000000681F0220A901000899840008816E000879
:10001000F1830008E10E0008F3C5000800000000AD
:100020000000000000000000000000009DA2000889
:1000300095110008000000007B870008EDA3000870
:10004000C3010008C3010008C3010008C301000880
:10005000C3010008C301000815180008C301000807
:10006000C3010008C301000823180008C3010008E9
:10007000C3010008C3010008C3010008C301000850
:10008000C3010008C3010008C3010008C301000840
:10009000C3010008C3010008C301000829180008B3
:1000A000C3010008C3010008C3010008C301000820
:1000B000C3010008C301000800000000C3010008DC
:1000C000C3010008C3010008C3010008C301000800
:1000D000C3010008C301000801AE0008C301000805
:1000E0001B180008C3010008000000000000000009
:1000F0000000000000000000000000000000000000
:1001000000000000C301000800000000C301000857
:10011000C301000800000000C30100080000000047
:10012000C3010008C3010008C3010008C30100089F
:10013000C3010008C3010008C3010008000000005B
:10014000C3010008C3010008C301000871C500080D
:10015000C3010008C3010008C3010008C30100086F
:10016000C3010008C3010008C3010008000000002B
:1001700000000000C30100080000000000000000B3
:10018000C3010008C3010008C3010008C30100083F
:10019000C3010008DFF80CD000F01CFD0048004748
:1001A000552D0108681F0220064880470648004771
:1001B000FEE7FEE7FEE7FEE7FEE7FEE7FEE7FEE717
:1001C000FEE7FEE789A40008950100082DE9F05F2D
:1001D0000546002092469B468846064681464024B6
:1001E0001BE0284641464746224600F002FB5346A4
:1001F0005A46C01A914110D311461846224600F0C3
:10020000E9FA2D1A67EB01084F462246012000212A
:1002100000F0E0FA17EB00094E41201EA4F10104A2
:10022000DFDC484631462A464346BDE8F09F0000E1
:1002300038B5D0E90221491E01EB410102EBC101B1
:100240004268C1EB011102EB81010268C1EB0111AF
:1002500002EB8102D0E9043101EB410103EB8101A2
:100260003023A1F5527191FBF3F4174D6C4302EB6F
:10027000C41291FBF3F403FB141100921A2902DB60
:10028000124B1A4400920C2291FBF2F3104C634380
:10029000009C04EBC313009391FBF2F302FB1311D8
:1002A0000C4A08E0491E40F2A324535C6343009CBF
:1002B00004EBC31300930029F4DC0146684600F008
:1002C000BBFA009838BD00003F0C0F0080510100C0
:1002D00067C2030068C1010840EA01039B0703D01D
:1002E00009E008C9121F08C0042AFAD203E011F875
:1002F000013B00F8013B521EF9D27047D2B201E037
:1003000000F8012B491EFBD270470022F6E710B51A
:1003100013460A4604461946FFF7F0FF204610BD73
:10032000421C10F8011B0029FBD1801A70472DE9EF
:10033000FE4F804681EA0300C00F0C46009021F07A
:10034000004123F00045B8EB0200A94105D2404628
:10035000214690461C460B46024623F000401043BF
:1003600047D0270DC7F30A00C3F30A510290401A81
:10037000019040286BDAC3F3130040F4801B00980F
:10038000924620B10023D2EB030A63EB0B0B0198DA
:100390005946C0F14002504600F01CFA06460D4690
:1003A00050465946019A00F034FA10EB08006141BA
:1003B000002487EA115284EAE7731A4340D0009A76
:1003C00062B3019A012A4FEA075215DC001B61EB68
:1003D00002014FF0004202EA0752CDE90042001C40
:1003E00041F5801132462B4600F0B2FA03B0BDE869
:1003F000F08F40462146F9E7001B61EB0201001C2B
:1004000041F5801300185B412018A2F5001747EB57
:10041000030140EAD570B6196D4111E06D084FEA4D
:10042000360645EAC0754FEA0752001B61EB020130
:10043000001C41F5801149084FEA30000019514174
:1004400032462B4603B0BDE8F04F00F072BA009878
:10045000012240000023D0EB020263EBE07300981E
:1004600021464FEAE074B8EB000061EB0401E9E7D4
:1004700083F000435BE781F0004158E72DE9FE4F30
:1004800081EA030404F0004421F0004100944FF09D
:10049000000B23F0004350EA01045ED052EA03044B
:1004A0005BD0C3F30A54C1F30A552C44A4F2F334CD
:1004B0000194A0FB0254C1F3130141F48011C3F372
:1004C000130343F4801301FB024400FB034E840A30
:1004D000970A44EA815447EA8357A4FB07680295C8
:1004E0008D0A05FB07854FEA932C04FB0C54270566
:1004F000029D4FEA065847EA1637B5EB08056EEB42
:10050000070C870E920E47EA811742EA8312A7FB77
:100510000201B6EB0B0164EB00042B0D43EA0C3334
:100520005E1844EB1C50DA465146E7FB0201C5F366
:1005300013044FEA0B3343EA14534FEA0432019C8D
:1005400043EA0603A4F10C040294009CCDE900B434
:1005500000F0FEF903B0BDE8F08F00200146F9E796
:100560002DE9F04D81EA030404F0004B21F0004531
:1005700014464FF0000A23F0004150EA050220D053
:1005800054EA01021DD0C5F30A570246C5F313030E
:10059000C1F31300C1F30A5640F4801543F48013ED
:1005A000A7EB0608101BD64608F2FD3873EB0500D2
:1005B00002D308F1010801E092185B41B8F1000F85
:1005C00003DA00200146BDE8F08D00204FF48011D1
:1005D000064684460EE0171B73EB050705D3121B76
:1005E00063EB050306434CEA010C49084FEA30006F
:1005F00092185B4150EA0107EDD152EA030012D094
:1006000082EA040083EA0501084305D0101BAB41D0
:1006100006D20122002306E000224FF0004302E050
:100620006FF0010253101AEB06004CEB085110EB6F
:100630000A0041EB0B01BDE8F04D00F07AB90EB5B0
:10064000C10F80EAE0700844CA07002140F233433A
:100650008DE80E000A460B4600F07AF903B000BDA3
:100660000EB540F2334102910021CDE900110A4656
:100670000B4600F06DF903B000BD70B5C1F30A522E
:1006800001F000450024C1F3130140F2FF3341F4AF
:1006900080119A4201DA002070BD40F233439A4241
:1006A000A2F2334203DC524200F0A3F800E0904093
:1006B0002C43F1D0404270BDC1F30A5210B5C1F3D2
:1006C000130140F2FF3341F480119A4201DA002015
:1006D00010BD40F233439A42A2F2334203DC52424D
:1006E00000F087F810BD904010BD00F0004230F0DF
:1006F00000400AD0C10D01F56071C0F3160042EA56
:100700000151C2084007114370470020014670475D
:1007100030B5041E71F1000404DB4FF00044404288
:1007200064EB0101141E73F1000405DB1C464FF05D
:100730000043524263EB04038B4208BF824230BD48
:1007400030B5041E71F1000404DB4FF00044404258
:1007500064EB0101141E73F1000405DB1C464FF02D
:100760000043524263EB0403994208BF904230BDFC
:1007700001F0004330B421F0004150EA010206D0FC
:100780000A0DA2F56072C1F31301002A02DC30BC2D
:1007900000207047440F44EAC104C100E01830BC97
:1007A00000EBC25000F08EB830B50B460146002079
:1007B0002022012409E021FA02F59D4205D303FA23
:1007C00002F5491B04FA02F52844151EA2F10102A4
:1007D000F1DC30BD202A04DB203A00FA02F10020CF
:1007E00070479140C2F1200320FA03F3194390406F
:1007F0007047202A04DB203A21FA02F000217047DA
:1008000021FA02F3D040C2F1200291400843194678
:100810007047202A06DBCB17203A41FA02F043EA60
:10082000E07306E041FA02F3D040C2F120029140A9
:10083000084319467047000010B500683C22B0FB21
:10084000F2F302FB1303B0FBF2F00B60B0FBF2F328
:1008500002FB1303B0FBF2F018224B60B0FBF2F383
:1008600002FB1303B0FBF2F0021D8B600723B2FB07
:10087000F3F403FB1422800040F2B55300F66C3011
:100880008A61B0FBF3F2B0FBF3F403FB14004432D3
:1008900080084A61C8613B2802D3920700D0401CFF
:1008A0000022074C13460A61E25C824203D8801A98
:1008B0005B1C0B61F8E7401CC860084610BD0000D7
:1008C000A0C201080029A8BF7047401C490008BF0A
:1008D00020F00100704710B4B0FA80FC00FA0CF070
:1008E00050EA010404BF10BC704749B1CCF12004A8
:1008F00021FA04F411FA0CF118BF01212143084335
:10090000A3EB0C01CB1D4FEA00614FEA102042BF60
:10091000002010BC704700EBC35010440029A4BF56
:1009200010BC7047401C490008BF20F0010010BCFB
:10093000704710B5141E73F1000408DA401C41F131
:10094000000192185B411A4301D120F0010010BD53
:100950002DE9F04D92469B4611B1B1FA81F202E0C9
:10096000B0FA80F220329046FFF734FF04460F467B
:1009700040EA0A0041EA0B0153465A46084313D0A5
:10098000114653EA010019D0C8F140025046FFF762
:1009900030FF05460E46504659464246FFF71AFFBD
:1009A000084305D0012004E020463946BDE8F08D1B
:1009B0000020054346EAE0762C4337430A98630556
:1009C000E40AA0EB08000022FD0A44EA47540A307A
:1009D00002D500200146E9E7010510196941DDE96A
:1009E000084500196941BDE8F04DA2E770B521F056
:1009F000004303430CD0C1F30A550024D5EB040592
:100A000064EB0403D617AD1AB34102DB00200146A4
:100A100070BD201841EB025170BD2DE9F04D00234F
:100A20001A461B1A8A4103DB00200146BDE8F08DFF
:100A3000C1F30A52C1F3130141F480154FF0000BCA
:100A4000D10702D100186D41521E0027044640F222
:100A5000FF11384601EB620A3E46804602460020FE
:100A60004FF48011FFF7C5FEC2197141BB1846EB68
:100A70000100B4EB030C75EB000C04D3E41A65EB36
:100A8000000517460E46241908F101006D41804605
:100A90003428E3DDF91946EB0600091BA84103D20F
:100AA0004FF0FF32134601E0002213461BEB070014
:100AB00046EB0A51BDE8F04DFFF73BBF2DE9F04191
:100AC000054621F000400C46284309D0C4F30A50E3
:100AD00040F23341884205DD28462146BDE8F081D9
:100AE0002846FBE740F2FE31884210DC0CDB4FEA7F
:100AF000043040EA155050EA053105D0104804F0A2
:100B0000004101430020E9E700200146E6E7A0F2AA
:100B100033404642C6F1400228462146FFF75AFEBE
:100B200007468846284621463246FFF762FE43467E
:100B30003A46FFF7FEFE3246BDE8F041FFF74ABEF7
:100B40000000F03FC1F30A52C1F3130140F2FF333A
:100B500041F480119A4202DA00200146704740F2C7
:100B600033439A42A2F2334202DC5242FFF741BEC3
:100B7000FFF730BE70B5044601F000450020054384
:100B800004D14FF00045644265EB010103F00045DC
:100B9000284305D118464FF00043524263EB00034F
:100BA000101B73EB010002D24FF0004009E082EA13
:100BB000040283EA01034FF000501A4301D14FF0C1
:100BC000C0404FEA2062EFF3008162F31F6181F3BE
:100BD000008870BD064C074D06E0E06840F0010358
:100BE00094E8070098471034AC42F6D3FFF7D6FAE2
:100BF000E8C4010808C5010870B58C1810F8015B3D
:100C000015F0070301D110F8013B2A1106D110F8A5
:100C1000012B03E010F8016B01F8016B5B1EF9D1A9
:100C20002B0705D40023521E0DD401F8013BFAE72F
:100C300010F8013BCB1A921C03E013F8015B01F89A
:100C4000015B521EF9D5A142D8D3002070BD00002F
:100C50002DE9F041044600270D46006806F030FB00
:100C60000646206806F028FB30435DD02068C16846
:100C70002E4E890105D5617E012902D1217E0129EF
:100C80000BD0022D1DD0206806F01AFBB8B12068E9
:100C90008168C1F3400169B111E00125244902E0F6
:100CA0008F4232D27F1C0268D2435206F8D44021D0
:100CB0000160E8E78168314041F010018160012D59
:100CC00011D0206806F0F8FA48B120688168C1F3B5
:100CD000400121B98168314041F020018160022D3D
:100CE00008D0032D04D0042502F0AAF8064617E028
:100CF0000C25F9E70825F7E702F0A2F8801B052884
:100D00000ED92068806828420AD0A06D40F01000FB
:100D1000A065E06D40F00100E0650120BDE8F081D4
:100D2000206880682842E7D10020F7E7C0FFFF7FF6
:100D3000000040A370B50446006881688268C1F372
:100D4000400112F0010F28D039BB816801F00D017C
:100D5000012914D18168124A1140891C81602168DF
:100D60000320086002F06CF8054612E002F068F813
:100D7000401B02280DD920688068C00709D0A06DEB
:100D800040F01000A065E06D40F00100E06501203A
:100D900070BD20688068C007E8D1002070BD0000E9
:100DA000C0FFFF7F70B504460068816811F0010F35
:100DB0002DD18168174A11421AD18168D543294043
:100DC000491C816002F03CF806461BE0816811F086
:100DD000010F03D181682940491C816002F030F87D
:100DE000801B02280ED920680068C043C00709D0C4
:100DF000A06D40F01000A065E06D40F00100E065DE
:100E0000012070BD20680168C943C907DED10020F8
:100E100070BD00003F00008010B50124022103488E
:100E200002F004F800B10024204610BD0004004880
:100E30000146014804F0A2BE3C07002010B504485A
:100E400004F0AEFE042801D0012010BD002010BD2A
:100E50003C07002010B500F015F8012801D0022051
:100E600010BD074804F0B2FE040006D14FF4006143
:100E7000034804F0FFFC00B10124204610BD00002F
:100E80003C07002008B501208DF80000FFF7C4FFE3
:100E900010B900208DF800009DF8000008BD00008A
:100EA00038B50024009313460A460146034804F06F
:100EB0007FFF00B10124204638BD00003C07002020
:100EC00038B50024009313460A460146034805F04E
:100ED0005BF800B10124204638BD00003C0700202B
:100EE000FEE700001CB50FA00068019000F01CF8A0
:100EF000012201A9202007F09FFA00280FD000F05E
:100F000013F802226946A02007F074FA002806D0E0
:100F10009DF8000010B99DF8010008B100201CBD2B
:100F200001201CBD1C00000038B500244FF4FA65F8
:100F300001226946802007F05DFA641CAC4206D8A5
:100F40009DF8001001F00101491E0142F0D038BDAA
:100F500008B501226946802007F04CFA002804D029
:100F60009DF80000000601D5012008BD002008BD45
:100F700008B501226946802007F03CFA002804D019
:100F80009DF80000400601D5012008BD002008BDE5
:100F9000FEB504461AA000680290FFF7C5FF0222C2
:100FA00002A9202007F048FA00254FF478464FF4B4
:100FB000FA7750B1FFF7B8FF09222146A02007F0C9
:100FC00019FA20B1607988B117E00EA300E013A3ED
:100FD000CDE90065012278210A200FF027FA0FF0F1
:100FE0006DFC384601F07AFD0020FEBDA07920B9E5
:100FF000E07910B9207A0028F7D00120FEBD00006A
:1010000001000000676574206669726D207772695F
:101010007465206572726F7200000000676574204D
:101020006669726D2072656164206572726F72000C
:1010300070B58AB000248DF82040FFF775FF0122BB
:1010400008A9202007F0F8F94FF478454FF4FA7614
:1010500060B1FFF769FF0A2205A9A02007F0CAF9CD
:1010600030B19DF81500492810D027E026A300E0F4
:101070002AA3CDE90054012278210A200FF0D6F9E5
:101080000FF01CFC304601F029FD38E09DF81600F9
:10109000542813D19DF8170045280FD19DF818004A
:1010A00037280BD19DF81900322807D19DF81A0076
:1010B000352803D19DF81B00392823D0CDE90054F1
:1010C0001BA3012278210A200FF0B0F90FF0F6FBE4
:1010D000304601F003FD9DF818000DF1040C9DF859
:1010E0001B309DF81A209DF819108CE80F0014A0F1
:1010F00000902B460122A02150200FF088FB0020F9
:101100000AB070BD0120FBE7746F756368207772C9
:10111000697465206572726F72000000746F756388
:10112000682072656164206572726F720000000051
:10113000746F756368204944206572726F72000095
:101140006533202564202564202564202564000063
:101150001CB50FA000680190FFF7E6FE032201A96D
:10116000202007F069F900280FD0FFF7DDFE0222EA
:101170006946A02007F03EF9002806D09DF800003F
:1011800010B99DF8010008B100201CBD01201CBD54
:101190001507FF00704700002DE9FF4F40F2DF31D7
:1011A0002DED020B002040F27F652DED028B89B002
:1011B000B0EE408A0891249A4FF6A021DDF878B06D
:1011C0004FF660694FF2BE7444F2082A0392079109
:1011D0000FF0EAF9FE49002007464860C7EB071008
:1011E00000264FEA400800BFC6EB0610410040460B
:1011F00002231E22CDF800A000F096FB761C082EDC
:10120000F2DD7F1C082FE9DD0D990A26B1FBF6F20D
:1012100006FB1212891A91FBF6F1EE4F01EBC101A8
:1012200007EB41114FF000088DE8120130231C201C
:101230001A463C2111F0BCF80D983023B0FBF6F1B2
:1012400006FB110000EBC00007EB40108DE8110118
:101250001A463C21442011F0ABF80E983023B0FB25
:10126000F6F106FB1101401A90FBF6F000EBC0000E
:1012700007EB40108DE811011A463C21802011F047
:1012800097F80E983023B0FBF6F106FB110000EB47
:10129000C00007EB40108DE811011A463C21A82040
:1012A00011F086F80F99CCA0CDE900012346012268
:1012B0005C21D7200FF0ABFA0F984BF61864C007EB
:1012C00047D011F013F806A904A8CDE90001DDE923
:1012D0001A10109A05AB02F5FA6213F091F9DDE9E4
:1012E0000412BFA08DE80700B94E01227521308994
:1012F00083B2A0200FF08BFADDE91A12B8A08DE8B6
:1013000007003089012283B2752128200FF07FFA6F
:101310001098152808D2B5A000903089012283B218
:10132000752157200FF073FAB3A003990FF0ACFBAF
:1013300003980FF0C5FA13F0DDF9F168401A4FF485
:101340007A71B1FBF0F00C28ACA11DDA4FF47843B0
:101350001BE0234605224B2178200FF0ACF82346F2
:1013600005225F2178200FF0A6F810F0C7FF109833
:101370001528974804D282684FF478418A4201D1F7
:101380008460A0E781609EE75346CDE9001001220A
:10139000E12178200FF06FFA13F0ACF9F060032729
:1013A000CDE900477823EB221946E1200EF0B5FF86
:1013B000CDE900477323EB221946E1200EF0ADFF83
:1013C000CDE900477D23EB221946E1200EF0A5FF71
:1013D00005240898CDE900048C23462219463220C2
:1013E0000EF09BFFCDE900548C236E2219465A2043
:1013F0000EF093FFCDE900948C23962219468220AB
:101400000EF08BFF0798CDE900048C23BE2219460D
:10141000AA200EF082FF18EE100A794988420DD2F8
:1014200018EE100AFFF761F9CDE9020175A00090EE
:1014300053460122D32178200FF01DFA08987349F2
:10144000CDE90010182344461A46CDF80880AA2199
:10145000302010F0ADFF1C9800EE100AB0F5A46F1C
:10146000F8EE400A10D89FED6A1A80EE810A10EE5D
:10147000100AFFF73AF9CDE9020166A000900122B7
:1014800096213020089B0FE09FED641A80EE810AC0
:1014900010EE100AFFF729F9CDE9020160A00090D3
:1014A000012296212E20089B0FF0B1F9494F1823F5
:1014B000483F0097CDE901941A46AA21802010F0F8
:1014C00077FF2199A7F19000E1B1CDE9000518233C
:1014D0001A46AA210294582010F06AFFCBF164004A
:1014E000C0EBC0004000642190FBF1F03070B030E0
:1014F00003B26822B021602000940FF040F84AA1A6
:101500002B4624E02E46BBF10F0F01D24FF4784654
:10151000CDE9000518231A46AA210294582010F09C
:1015200047FF13F0E7F84FF4FA61B0FBF1F201FB6B
:1015300012008E21B0FBF1F0C0F1BE0003B26822B0
:10154000B021602000940FF01AF837A13346CDE99E
:10155000001B012296215C200FF059F90097CDE97C
:10156000019418231A46AA21802010F021FF259902
:1015700022A0CDE900014B4601228F2182200FF0ED
:1015800046F926991DA0CDE900014B4601229D2177
:1015900084200FF03CF90F4907989039CDE90010ED
:1015A00018231A460294AA21A82010F001FF1D99C1
:1015B0001EA0CDE9000101229621AA20079B0FF071
:1015C00026F91F984FF6FF74012844D0002831E017
:1015D000F40400209CB501082530326400000000AE
:1015E000253032642F2530326400000053657420AA
:1015F00064617465000000002000000025640000A4
:10160000000020C225322E31662063007CB4010820
:1016100072F9A73F25312E30666D0000C00AA44440
:1016200025312E31664B00002564250025642F38B6
:101630000000000023A0009011D04FF47843002256
:10164000142150200FF0E3F8209800281EA00090ED
:1016500007D0234606E01BA023460090EFE7534641
:10166000EDE75346002214213C200FF0D0F8022170
:10167000164801F0DBFB002815A0009020D053464F
:101680000022142146200FF0C2F8229838B111A090
:1016900000902346002214215A200FF0B8F8239816
:1016A000002807D00CA000902346002214216420BB
:1016B0000FF0ADF809B0BDEC028B06B0BDE8F08FBD
:1016C0002346DDE74200000055000000000400480A
:1016D0005300000041000000534100002DE9FC5F71
:1016E00006469A4690460D46901B00D5404207B2EA
:1016F000BAEB050000D540420FFA80F94FF0FF30F9
:10170000464501DA012100E0014601915146554567
:1017100000DA01208346A7EB090004B240460C9A88
:1017200000F0D8F8C9F10000009016E029463046D4
:101730000C9A0EF04EFE6000009900B2884205DD62
:10174000A4EB09010CB2019931440EB2B84204DA9B
:10175000E01904B205EB0B0005B24645E6D155454C
:10176000E4D1BDE8FC9FB0B50C462DED028BB0EE88
:10177000408A054617460EF025FF00F01F0100EED7
:10178000901AB7EE000A07F01F0130EE480AF8EE93
:10179000600A01EE101AC0F34511C00A60EE800A1B
:1017A000B8EE411AB2B241EE080AFCEEE00A10EEC1
:1017B000903A00EE901AC7F3451101EE101AF8EEB8
:1017C000600A63F30402B8EE411A60EE800A41EE4B
:1017D000080AFCEEE00A10EE901A00EE900AF80AF1
:1017E00061F34A12F8EE600A214620EE800A00EE0C
:1017F000900AF8EE600A00EE880ABDEC028BBCEE9F
:10180000C00A10EE100A60F3CF222846BDE8B040AF
:101810000EF0DFBD012001F021BA4FF4805001F03D
:101820001DBA102001F01ABA10B5202001F016FAE6
:10183000402001F013FABDE810404FF4807001F031
:101840000DBA10B510F05AFD642001F047F9BDE85B
:10185000104002F04FB80022AFF3008030B50E4BBD
:10186000054601205C7A002C14D1587A1C54587A11
:1018700003EB800045605D7A03F108002A54587A32
:10188000421C5A72303008703A2048702F208870FD
:10189000CC70002030BD0000241B002008B129209E
:1018A00000E0282008F000BD1FB51446F0280FD234
:1018B00000290DDBF0290BDA0A19521ED3B2C2B28D
:1018C000C9B2C0B200F068FBA1B203A800F048FBA7
:1018D0001FBD000017B50B460446F0280FD2002BA1
:1018E0000DDBF02B0BDA02A808F074FDC3EB03113B
:1018F000034A04EB0111BDF8080022F811001EBDD7
:10190000481D002007B5F0280DD200290BDBF02977
:1019100009DACBB2C2B2C9B2C0B200F03DFB0121BC
:1019200002A800F01DFB0EBD2DE9F04305469946C7
:1019300016460F4607A808F04DFDBC1B264847E099
:10194000AB1B42E05A1B5243E11B01FB012106FB8A
:1019500006F28A4238DDA6EB090252438A4230DAA7
:10196000C3EB4502C4EB4701F02C13D2F02B07D296
:10197000C4EB041803EB0818BDF81CC020F818C00D
:10198000F02A07D2C4EB041802EB0818BDF81CC0FB
:1019900020F818C0F02917D2F02B07D2C1EB01189C
:1019A00003EB0818BDF81CC020F818C0F02A0BD2B1
:1019B000C1EB011102EB0111BDF81CC020F811C0F0
:1019C00002E0E91A03EB41035B1CAB42BADD641C85
:1019D000BC42B5DDBDE8F083481D0020F0B5141E03
:1019E0000D4606463ADD002B38DDF02E36DAF02DB6
:1019F00034DA002E02DA104404B20026002D02DA96
:101A0000581803B20025002C28DD002B26DD3019E4
:101A1000F02802DDC6F1F00004B2E818F02802DD7B
:101A2000C5F1F00003B205A808F0D4FC00210C4A6F
:101A3000BDF814C010E000206F18C7EB071706EBC5
:101A4000071705E007EB000E401C22F81EC080B20D
:101A5000A042F7DB491C89B29942ECDBF0BD0000E3
:101A6000481D0020F020704708B5F02803D2002957
:101A700001DBF02901DB002008BDC1EB011100EB07
:101A80000110054931F81000ADF80000684608F073
:101A9000A1FCBDF8000008BD481D0020F0207047E3
:101AA00070B5104C00220421204601F0C4F90E4EFE
:101AB0004FF4004500222946304601F0BCF93C2095
:101AC00001F00CF801220421204601F0B4F90122B2
:101AD0002946304601F0AFF9BDE87040142000F00F
:101AE000FDBF00000008004800040048FF4910B591
:101AF000002008704870FFF7D3FFEF2008F0D4FBF8
:101B0000EB2008F0D1FB142008F0ECFBFE2008F0DD
:101B1000CBFBEF2008F0C8FBEB2008F0C5FB14203E
:101B200008F0E0FB842008F0BFFB402008F0DAFB5F
:101B3000852008F0B9FBFF2008F0D4FB862008F0D0
:101B4000B3FBFF2008F0CEFB872008F0ADFBFF20A1
:101B500008F0C8FB882008F0A7FB0A2008F0C2FBA9
:101B6000892008F0A1FB212008F0BCFB8A2008F0A6
:101B70009BFB002008F0B6FB8B2008F095FB802033
:101B800008F0B0FB8C2008F08FFB012008F0AAFBC6
:101B90008D2008F089FB012008F0A4FB8E2008F0BE
:101BA00083FBFF2008F09EFB8F2008F07DFBFF20C9
:101BB00008F098FBB62008F077FB002008F092FBB5
:101BC000202008F08FFB362008F06EFB082008F07C
:101BD00089FB3A2008F068FB052008F083FB902081
:101BE00008F062FB082008F07DFB082008F07AFB73
:101BF000082008F077FB082008F074FBBD2008F0EF
:101C000053FB062008F06EFBBC2008F04DFB0020C3
:101C100008F068FBFF2008F047FB602008F062FB3B
:101C2000012008F05FFB042008F05CFBC32008F0F3
:101C30003BFB132008F056FBC42008F035FB1320B3
:101C400008F050FBC92008F02FFB222008F04AFBC7
:101C5000BE2008F029FB112008F044FBE12008F029
:101C600023FB102008F03EFB0E2008F03BFBDF209A
:101C700008F01AFB212008F035FB0C2008F032FB9D
:101C8000022008F02FFBF02008F00EFB452008F0A2
:101C900029FB092008F026FB082008F023FB082078
:101CA00008F020FB262008F01DFB2A2008F01AFB74
:101CB000F12008F0F9FA432008F014FB702008F036
:101CC00011FB722008F00EFB362008F00BFB3720CA
:101CD00008F008FB6F2008F005FBF22008F0E4FA9A
:101CE000452008F0FFFA092008F0FCFA082008F067
:101CF000F9FA082008F0F6FA262008F0F3FA2A206C
:101D000008F0F0FAF32008F0CFFA432008F0EAFADE
:101D1000702008F0E7FA722008F0E4FA362008F0A4
:101D2000E1FA372008F0DEFA6F2008F0DBFAED2048
:101D300008F0BAFA1B2008F0D5FA0B2008F0D2FA06
:101D4000AE2008F0B1FA772008F0CCFACD2008F0E8
:101D5000ABFA632008F0C6FA702008F0A5FA072055
:101D600008F0C0FA072008F0BDFA042008F0BAFA1B
:101D70000E2008F0B7FA0F2008F0B4FA092008F096
:101D8000B1FA072008F0AEFA082008F0ABFA0320F9
:101D900008F0A8FAE82008F087FA342008F0A2FA40
:101DA000622008F081FA182008F09CFA0D2008F053
:101DB00099FA712008F096FAED2008F093FA702055
:101DC00008F090FA702008F08DFA182008F08AFACE
:101DD0000F2008F087FA712008F084FAEF2008F04D
:101DE00081FA702008F07EFA702008F07BFA6320F8
:101DF00008F05AFA182008F075FA112008F072FA63
:101E0000712008F06FFAF12008F06CFA702008F0E9
:101E100069FA702008F066FA182008F063FA1320B7
:101E200008F060FA712008F05DFAF32008F05AFA21
:101E3000702008F057FA702008F054FA642008F077
:101E400033FA282008F04EFA292008F04BFAF12046
:101E500008F048FA012008F045FAF12008F042FAAB
:101E6000002008F03FFA072008F03CFA662008F04E
:101E70001BFA3C2008F036FA002008F033FACD2097
:101E800008F030FA672008F02DFA452008F02AFA09
:101E9000452008F027FA102008F024FA002008F066
:101EA00021FA002008F01EFA002008F01BFA672033
:101EB00008F0FAF9002008F015FA3C2008F012FAB0
:101EC000002008F00FFA002008F00CFA002008F0BB
:101ED00009FA012008F006FA542008F003FA10204D
:101EE00008F000FA322008F0FDF901E0F0040020CB
:101EF000982008F0F7F9742008F0D6F9102008F0BF
:101F0000F1F9852008F0EEF9802008F0EBF90020C7
:101F100008F0E8F9002008F0E5F94E2008F0E2F9B1
:101F2000002008F0DFF9982008F0BEF93E2008F004
:101F3000D9F9072008F0D6F9012000F00BF80A20A3
:101F400000F0CCFD0120FFF7A9FCBDE810400A20FD
:101F500000F0C4BD08B1212000E0202008F0A4B9A1
:101F600070B50D46044606E02088000A08F0BAF96C
:101F7000207808F0B7F96D1EADB2F5D270BD4FF004
:101F80009043642800D808B1012200E000222021FB
:101F9000184600F050BF00002DE9F0411A4D984658
:101FA0000C46904213D8F02A11D8297846185718B1
:101FB0002A2008F079F9300A08F094F9F0B208F014
:101FC00091F9380A08F08EF9F8B208F08BF940461A
:101FD000844214D8F02812D869782B200C4408EBDE
:101FE000010508F061F9200A08F07CF9E0B208F078
:101FF00079F9280A08F076F9E8B208F073F9BDE833
:10200000F0412C2008F050B9F004002008B1102055
:1020100000E0112008F048B910B5EF2300211A465E
:102020000846FFF7B9FF0122D1034FF0904000F0BE
:1020300002FF00220821074800F0FDFE4FF4614234
:102040004FF47A730449054804F042F9BDE81040A2
:1020500008F066B900080048481D0020C0070020AD
:102060002DE9F05F1D4680464819401E1646C3B252
:1020700008EB0600401EC2B20F464046FFF78CFF39
:102080000122D1034FF0904000F0D5FEDFF844B0BC
:1020900000220821584600F0CEFE0024DFF83890D8
:1020A0004FF47A7A76000CE03819C0EB001108EB97
:1020B000011109EB410153463246084804F008F982
:1020C000641CAC42F0DB5846BDE8F05F01220821F9
:1020D00000F0B1BE00080048481D0020C0070020E5
:1020E0002DE9F84F00270446009790F85400DFF8D8
:1020F000D0930D46B846012811D0012684F85460CB
:10210000206805F0DDF860B1A06D40F02000A0650A
:102110005FF0010784F854803846BDE8F88F02204C
:10212000FBE768680C23052812D8022807D003288B
:1021300007D0042807D0052807D0062007E06B60E9
:1021400006E0122003E0182001E04FF48070686080
:10215000D5E90021206803EA91131844036B01F0CC
:102160001F014FF01F0C0CFA01FCC2F3846223EA3A
:102170000C038A4013430363206805F0A1F88246EC
:10218000206805F099F85AEA000025D1AA68296864
:102190002068B2F1004F20D005F09EF82068416918
:1021A00021F00041416120686969C268C2F3C1023F
:1021B000520091402A69042A17D000EB82002B6854
:1021C000026EDFF800C303F0F84302EA0C020B438F
:1021D0001A4342F0004101667AE0002205F07CF8E3
:1021E0002068416941F00041DCE7002105F05EF81C
:1021F000400320684FF0000172D005F057F890FAC4
:10220000A0F0B0FA80F1286842036ED090FAA0F0F6
:10221000B0FA80F0814204D100221146206805F016
:102220006AF80121206805F041F8400320684FF06A
:1022300001015DD005F03AF890FAA0F0B0FA80F113
:102240002868420359D090FAA0F0B0FA80F0814299
:1022500004D100220121206805F04DF802212068F8
:1022600005F024F8400320684FF0020148D005F043
:102270001DF890FAA0F0B0FA80F12868420344D02B
:1022800090FAA0F0B0FA80F0814204D1002202213D
:10229000206805F030F80321206805F007F84003B6
:1022A00020684FF0030133D005F000F890FAA0F059
:1022B000B0FA80F1286842032FD090FAA0F0B0FA6B
:1022C00080F0814204D100220321206805F013F838
:1022D0002068816811F0010F22D0ABE000E004E03B
:1022E00004F0E4FFC0F384618DE7C0F3846091E7FC
:1022F00004F0DCFFC0F38461A2E7C0F38460A6E7CA
:1023000004F0D4FFC0F38461B7E7C0F38460BBE797
:1023100004F0CCFFC0F38461CCE7C0F38460D0E765
:102320002A7B296850F8B03FC1F3120C23EA0C0352
:1023300002F0180C644A22FA0CF20A4013430360BC
:10234000E968494576D1286841031BD090FAA0F18D
:10235000B1FA81F1491C01F01F0109294FEA40310E
:1023600031D8002911D090FAA0F1B1FA81F100BF63
:1023700001F1010101F01F0106FA01F608D1C0F3D5
:10238000846109E0C0F38461E4E7C0F38461EFE7AE
:1023900090FAA0F1B1FA81F101F1010101F01F0100
:1023A00046EA816102D1C0F3846003E090FAA0F0B4
:1023B000B0FA80F000F1010000F01F0000EB4000D7
:1023C00041EA005132E000290ED090FAA0F1B1FAB2
:1023D00081F100BF01F1010101F01F0106FA01F6D0
:1023E00005D1C0F3846106E0C0F38461F2E790FA9E
:1023F000A0F1B1FA81F101F1010101F01F0146EAFA
:10240000816102D1C0F3846003E090FAA0F0B0FAD9
:1024100080F000F1010000F01F002C4A00EB4000AA
:1024200002EB005041EA000141F00071AA68206807
:1024300004F052FF26482A6802423FF46BAE25485A
:102440008168254D254B01F0E071AA421BD10D0298
:1024500019D422689A427FF45DAE826841F400018B
:1024600022F0E0720A4382601D481E490068B0FBFA
:10247000F1F0401C00EB4000800000E0401E0090A6
:102480000028FBD146E6184DAA4207D1CD0105D45C
:1024900022689A42F6D141F080710AE06FF000455F
:1024A000EA42EFD14A02EDD422689A42EAD141F4DD
:1024B0008001826822F0E0720A4382602AE600000E
:1024C00000007F4000F0FF03FFFF0700000020FE38
:1024D0000000088000030450000052C700000450B0
:1024E000A8020020400D0300000084CB70B504005A
:1024F0000FD0A06D40F00200A06503212046FEF73A
:10250000A7FB05002068C16841F40011C16002D03A
:1025100008E0012070BD2046FEF70CFC050001D14B
:102520000120A065206841686FF30A0141602168BD
:1025300040F2FF7008602068816821F0A04181604E
:102540002068816841F0005181602068C16801F015
:102550008021C1602068C16841F00041C1602068ED
:1025600001696FF30A0101612068416901F080414E
:1025700041612068816901F0784181612068016AC8
:1025800001F0F02101622068416A01F0FF214162FF
:102590002068816A01F0FF2181622068016B294A6D
:1025A000114001632068426B264910390A4042639A
:1025B0002068826B0A4082632068C16B40F2DF7240
:1025C0009143C16321680A6E1F4802400A66216870
:1025D0004A6E02404A6621688A6E02408A66216815
:1025E000CA6E0240CA66206850F8A01F6FF312013D
:1025F0000160206850F8A41F6FF312010160206889
:1026000050F8B01F6FF312010160206850F8B41F3A
:1026100021F07F1101600D48816811F0010F08D190
:10262000D0F808130A4A1140C0F80813204600F0F9
:10263000EFF80020E06520666066A06584F854002D
:10264000284670BD300882E000F0FF03000004500F
:10265000FFFF00FE0068006C70470000F8B54FF007
:10266000000504002E46009502D0A06D10B107E0D1
:102670000120F8BD204600F0DFF8E66584F85460DC
:1026800020688168C1F3407119B18168584A1140CE
:10269000816020688168C1F3007189B98168554AF9
:1026A000114041F080518160534854490068B0FBAB
:1026B000F1F04000801C00E0401E00900028FBD19B
:1026C00020688168C1F3007141B9A16D41F010012A
:1026D000A165E16D41F00101E165012504F0F0FD26
:1026E000A16D01F010010143A06D05D040F0100074
:1026F000A06501252846F8BD20F4807040F0020056
:10270000A0652068806810F0010F0BD13C488068FC
:1027100010F0010F06D13B486168826822F47C12F8
:102720000A438260E168606B627E0843A16841EA07
:102730004231084394F8201040EA0140012904D1B5
:10274000A18C314A02EB41410843A16A29B101F44D
:102750007071E26A014342EA01002268D1682B4BA2
:1027600019400143D160206804F0AAFD06462068A4
:1027700004F0A2FD304317D1207E94F8301080037E
:1027800040EA4100E16C08432168CA6844F206034C
:102790009A430243CA6094F8380001280CD020689C
:1027A000016921F001010161206901282068016BA4
:1027B00021F00F0111D013E0D4E90F010843D4E94F
:1027C00011121143084321680A6940F2FC739A43CD
:1027D000104340F001000861E6E7E269521E114330
:1027E0000163A06D20F0020040F00100A06581E7C8
:1027F000C0FFFF5FC0FFFF7FA8020020400D030065
:1028000000000450000304500000FEFF07C0F0FF6A
:1028100000680749884209D10648C16C21F400517B
:10282000C16410214FF0904000F06AB97047000079
:10283000000004500010024010B5A0B0044614215E
:102840001AA8FDF762FD68216846FDF75EFD1D4987
:102850002068884233D14FF4804000908003179065
:1028600003200190012002900C2003900720049087
:1028700004200590069080050790684602F058F8FD
:1028800008B1FEF7DEFF1048C16C41F40051C1648D
:10289000C16C01F400511F91C16C41F00101C16490
:1028A000C06C1AA900F001001F9010201A900B2094
:1028B0001B9000201C904FF0904000F0DBF920B0FE
:1028C00010BD000000000450001002402DE9F0414E
:1028D000044640690E4608280AD02068C068C00730
:1028E00008D0A06D40F02000A0650120BDE8F08177
:1028F000082500E0042500F0A3FA074614E0701C48
:1029000012D000F09DFAC01BB04200D866B9206812
:102910000068284208D1A06D40F00400A0650020A6
:1029200084F854000320E1E7206800682842E6D0DC
:10293000A06D40F40070A065206804F0C5FC80B173
:10294000607E70B92068006800070AD5A06D20F489
:102950008070A065A06DC00403D4A06D40F001009C
:10296000A0652068C168082D05D0490401D40C2158
:1029700001600020BAE70821FAE7000010B504461C
:10298000006804F09DFC10B10221084610BD94F8C7
:10299000540001280CD0012084F854002046FEF792
:1029A00001FA01004FF0000004D084F85400ECE775
:1029B000022010BDA26D40F601639A4342F480727A
:1029C000A265A26DD20404D5E26D22F00602E26592
:1029D00000E0E06523681C221A6084F85400206837
:1029E000C268920105D5A26D22F4005242F48052D1
:1029F000A2658268024B1A40121D8260C5E7000082
:102A0000C0FFFF7F10B5044690F85400012808D09D
:102A1000012084F8540003212046FEF719F910B173
:102A20000BE0022010BD2046FEF784F928B9A16D05
:102A300021F4885141F00101A165002184F854106E
:102A400010BD10B590F825100022022905D00421F0
:102A5000C16380F82420012010BD01680B6823F0B9
:102A60000E030B6001680B6823F001030B6090F804
:102A70004410046C01F01C03012101FA03F36360AC
:102A800080F8251080F82420104610BD10B590F86D
:102A900025100024022903D00421C16301241AE077
:102AA00001680A6822F00E020A6001680A6822F0D2
:102AB00001020A6090F84410036C01F01C0201212D
:102AC00001FA02F25A6080F82510002180F82410E3
:102AD000816B01B18847204610BD000070B50446E7
:102AE00000F0AEF90546601C02D0044800780444AA
:102AF00000F0A6F9401BA042FAD370BD9C02002052
:102B00002DE9F84F00230126DFF814C10F2780E0DC
:102B100006FA03F414EA01027AD023F003056544AF
:102B2000AA46D5F808909D074FEA157E07FA0EF5DC
:102B300005EA090B0095B0F1904F05D0394DA84238
:102B400005D14FF0010816E04FF0000813E0364DB4
:102B5000A84202D14FF002080DE0344DA84202D144
:102B60004FF0030807E0324DA84202D14FF00408AD
:102B700001E04FF0070808FA0EF8D84524D1DFF835
:102B8000B480D8F8009029EA0209C8F8009008F14A
:102B90000408D8F8009029EA0209C8F8009008F162
:102BA0000408D8F8009029EA0209C8F8009008F152
:102BB0000408D8F800509543C8F80050009DDAF892
:102BC0000820AA43CAF80820D0F800804FEA430939
:102BD000032202FA09F248EA0208C0F80080DD0880
:102BE00000EB8505AA46D5F820804FEA43794FEAE5
:102BF000D96907FA09F528EA0508CAF82080856826
:102C0000954385604568A5434560C4689443C460A6
:102C10005B1C31FA03F27FF47BAFBDE8F88F000054
:102C2000000001400004004800080048000C004873
:102C30000010004800040140064A1F219161012153
:102C4000054A402804D0B0F5805F00D1117070476C
:102C5000516570470070004060000020044910B5C5
:102C60000A68024202D00860FFF7E6FF10BD0000CC
:102C7000140401402DE9FC4FDFF894A10023012545
:102C80000AF1040B03244FF00F0C0BF1040EB8E013
:102C900005FA03F632406FD04F68012F05D0022F9E
:102CA00003D0112F01D0122F17D1D0F808905F0058
:102CB00004FA07F829EA08090097D1F80C8008FA05
:102CC00007F848EA0908C0F808804768B7430E7952
:102CD000C6F300169E403E434660C6684FEA43086E
:102CE00004FA08F7BE4301978F6807FA08F73743DD
:102CF000C7604E68022E01D0122E13D1DE0800EB01
:102D000086060096366A5F07FF0E0CFA07F926EA78
:102D10000906D1F8109009FA07F949EA0609009E58
:102D2000C6F820900668019FBE430F7907F003079D
:102D300007FA08F7374307604E68F60060D5354E4E
:102D4000376E47F001073766366E23F0030706F04B
:102D500001060096304E3E44B146B6689F074FEAE2
:102D600017780CFA08F7BE43B0F1904F05D02B4FFF
:102D7000B84204D1012712E042E000270FE0284FBB
:102D8000B84201D102270AE0264FB84201D10327F9
:102D900005E0254FB84201D1042700E0072707FAD4
:102DA00008F73743C9F80870DAF800605746D1F8D9
:102DB000048096435FEAC83800D516433E60DBF8CE
:102DC00000605F46D1F8048096435FEA883800D5FA
:102DD00016433E60DEF800607746D1F804809643E3
:102DE0005FEAC82800D516433E60094F0C373E689D
:102DF000D1F8048096435FEA882800D516433E60E8
:102E00005B1C0A6832FA03F67FF442AFBDE8FC8F20
:102E1000000401400010024000000140000400488E
:102E200000080048000C00480010004800690840F5
:102E300000D0012070470AB18161704781627047FC
:102E400001488068704700009C02002090F84120F3
:102E5000202A24D190F84020012A20D0012280F895
:102E60004020242280F841200268136823F00103E7
:102E700013600268136823F48053136002681368B8
:102E80000B43136001680A6842F001020A602021C6
:102E900080F84110002180F8401008467047022059
:102EA000704790F84120202A22D190F84020012A32
:102EB0001ED0012280F84020242280F841200268A0
:102EC000136823F0010313600268136823F470632E
:102ED00043EA0121116001680A6842F001020A60B8
:102EE000202180F84110002180F8401008467047EA
:102EF0000220704710B5040013D0242084F841004C
:102F00002068016821F001010160204600F07CFB8F
:102F10000020606484F8410044F8300FA0742074ED
:102F200010BD012010BD000070B5040004D094F85D
:102F30004100002510B106E0012070BD84F840502A
:102F4000204600F0A3FB242084F84100206801689B
:102F500021F0010101606068216820F07060086163
:102F60002068816821F400418160E0680128A06840
:102F700007D040F4044021688860E068022803D04C
:102F800006E040F40040F6E721684FF40060486036
:102F900020684168114A114341602068C16821F4EA
:102FA0000041C160D4E904010843A16940EA01205D
:102FB0002168C860D4E907010843216808602068D7
:102FC000016841F0010101606564202084F841003E
:102FD000256384F84250002070BD0000008000028C
:102FE0002DE9FC4700260446019690F841001F4653
:102FF0009246894620287ED120688069C04300041B
:1030000079D594F84000012875D0012084F840005B
:10301000242084F8410066644FF02008E06801280D
:1030200009D029F4544040F4205021684860FFF74B
:1030300007FF05460DE0314949EA010030490840E3
:10304000F3E7781C05D0FFF7FBFE401BB84219D808
:10305000C7B1216888698969C0F34010C1F30011C4
:103060000843EED0206880693B46C043C0064FF05D
:1030700000024FF020012046009517D503F0CEFF47
:1030800068BB09E084F8418054F8440F40F0200008
:1030900044F80409267022E02168C1F81C8084F8F5
:1030A000418084F840600020BDE8FC8703F0B6FF53
:1030B000A8B921681020C8612168C1F81C80019856
:1030C000504512D12068416841F4804141603B463F
:1030D000002220212046009503F0A0FF10B101201E
:1030E000E2E708E02168C1F81C800198401C0190CB
:1030F000504593D3C6E70220D6E700000020000227
:10310000FF2300022DE9F84F044690F84100DDF856
:1031100028A01F4690468B4620287ED194F8400078
:1031200001287AD0012084F84000FFF789FE064686
:10313000012200901923D103204603F06FFFE0BB6A
:10314000222084F84100102084F8420000256564A4
:10315000C4F8248067856563618D3148FF274FF08F
:1031600080784FF00079FF2903D927853A460090EF
:1031700039E0618D218500903AE05946204603F000
:1031800037FF13E003F076FFB8B92068406A616A40
:103190000870606A401C6062208D401E80B22085ED
:1031A000618D491E6185618D01B168B1608D3246C6
:1031B000002851462046E5D100E002E003F09CFFE4
:1031C000D0B10120BDE8F88F53460022802120466F
:1031D000009603F023FF0028F3D1608DFF2804D967
:1031E00027853A4600954346C7E7608D20850095C0
:1031F00094F828204B46C0E721682020C861216848
:103200004A68084B1A404A6084F8410084F84250EA
:1032100084F840500020D5E7FFE70220D2E7000005
:103220000024008000E800FE2DE9F84F044690F8E5
:103230004100DDF828A01F4690468B4620287ED10D
:1032400094F8400001287AD0012084F84000FFF76C
:10325000F7FD0646012200901923D103204603F012
:10326000DDFEE0BB212084F84100102084F84200FC
:1032700000256564C4F8248067856563618D3148E5
:10328000FF274FF080784FF00079FF2903D9278579
:103290003A46009039E0618D218500903AE0594628
:1032A000204603F0A5FE13E003F04CFFB8B9606AB6
:1032B000216800788862606A401C6062608D401EF0
:1032C0006085208D401E80B22085618D01B168B17E
:1032D000608D3246002851462046E5D100E002E0EC
:1032E00003F00AFFD0B10120BDE8F88F5346002259
:1032F00080212046009603F091FE0028F3D1608DD6
:10330000FF2804D927853A4600954346C7E7608DD4
:103310002085009594F828204B46C0E7216820209E
:10332000C86121684A68084B1A404A6084F8410025
:1033300084F8425084F840500020D5E7FFE702208F
:10334000D2E700000020008000E800FE2DE9FF4FDA
:1033500083B00446DDE9108790F84100DDF848901D
:103360009A469346202874D15FEA080014D09FB192
:1033700094F8400001286CD0012084F84000FFF749
:103380005FFD0646012200901923D103204603F079
:1033900045FE002871D103E04FF4007060646CE0DA
:1033A000222084F84100402084F842000025656412
:1033B000C4F8248067856563CDE9009653465A4674
:1033C0002046049903F0B0FD10B184F8405054E059
:1033D000618D3548FF274FF080784FF0007AFF2944
:1033E00004D927853A464346009005E0618D218542
:1033F000009094F8282053462046049903F0F8FDE5
:103400004B46002204212046009603F007FEA0BB95
:103410002068406A616A0870606A401C6062208DA2
:10342000401E81B22185608D401E6085608DD8B1BF
:10343000D1B94B46002280212046009603F0EEFDD4
:10344000D8B9608DFF2805D927853A4643460095AF
:1034500006E026E0608D2085009594F828205346EC
:103460002046049903F0C4FD608D0028C8D132467F
:103470004946204603F040FE18B1012007B0BDE8E0
:10348000F08F21682020C86121684A68074B1A40E4
:103490004A6084F8410084F8425084F8405000208B
:1034A000ECE70220EAE700000024008000E800FECC
:1034B0002DE9FF4F83B00446DDE9108790F8410005
:1034C000DDF848909A469346202871D15FEA0800BB
:1034D00014D09FB194F84000012869D0012084F8ED
:1034E0004000FFF7ADFC0646012200901923D103EE
:1034F000204603F093FD00286ED103E04FF40070E6
:10350000606469E0212084F84100402084F8420092
:1035100000256564C4F8248067856563CDE900965D
:1035200053465A462046049903F030FD10B184F802
:10353000405051E0608DFF274FF080784FF0007AC7
:10354000FF2804D927853A464346009505E0608D5B
:103550002085009594F8282053462046049903F0CE
:1035600047FD32464946204603F0ECFDA0BB606AA9
:10357000216800788862606A401C6062608D401E2D
:103580006085208D401E80B22085618DD9B1D0B973
:103590004B46002280212046009603F03FFDD8B91B
:1035A000608DFF2805D927853A464346009506E0F9
:1035B00026E0608D2085009594F82820534620460B
:1035C000049903F015FD608D0028CAD132464946A2
:1035D000204603F091FD18B1012007B0BDE8F08F3F
:1035E00020682021C16120684268064B1A40426071
:1035F00084F8411084F8425084F840500020ECE7F1
:103600000220EAE700E800FE10B51A4A01681A48ED
:1036100091420CD1816D21F40011816541154FF06B
:1036200090442046FFF76CFA4FF480611BE0134A88
:1036300091420BD1816D21F480018165104C5114B0
:103640002046FFF75DFA4FF480410CE00D4A9142AD
:103650000ED1816D21F4000181650B4C01212046C2
:10366000FFF74EFA02212046BDE81040FFF748BAA6
:1036700010BD0000005400400010024000580040FF
:1036800000040048005C0040000800482DE9F041BB
:10369000A0B0044614211AA8FCF737FE682168463A
:1036A000FCF733FE3D4A206800213D4C12260127DD
:1036B00003254FF00408904223D1402000900D9143
:1036C000684601F035F908B1FEF7BBF8E06C40F050
:1036D0000100E064E06C1AA900F001001F904FF4B3
:1036E000C06081E8C100CDE91D584FF09040FFF760
:1036F000C1FAA06D40F40010A065A06D00F40010A8
:1037000024E0284A904225D1802000900E916846FE
:1037100001F00EF908B1FEF794F8E06C40F00200F9
:10372000E064E06C1AA900F002001F904FF4C04062
:1037300081E8C100CDE91D581B48FFF79BFAA06D39
:1037400040F48000A065A06D00F480001F9020B0C0
:10375000BDE8F081154A9042F9D180150F91009093
:10376000684601F0E5F808B1FEF76BF8E06C40F050
:103770000400E064E06C1AA900F0040081E8E000B5
:10378000CDE91E801D950A48FFF774FAA06D40F43C
:103790000000A065A06D00F40000D7E700540040D1
:1037A000001002400058004000040048005C004047
:1037B000000800480248816802781144816070471F
:1037C0009C02002010B50024032000F081F80020A6
:1037D00000F008F808B1012401E000F025F82046C7
:1037E00010BD000070B50E4E05460024307898B12B
:1037F0004FF47A71B1FBF0F00A490968B1FBF0F0BF
:1038000002F02AFE40B9102D06D200222946501E91
:1038100000F03EF8756000E00124204670BD000015
:103820009C020020A8020020094808B5016E41F062
:1038300001010166016E01F001010091816D41F00D
:1038400080518165806D00F08050009008BD0000BF
:103850000010024000280DDB00F01F020121914002
:103860004009800000F1E020C0F88011BFF34F8FC5
:10387000BFF36F8F7047002809DB00F01F020121A2
:1038800091404009800000F1E020C0F8001170472D
:10389000F0B40E4B1B680C46C3F30223C3F10705BB
:1038A000042D00D90425191D072901D2002300E0A9
:1038B000DB1E012606FA05F1491E214099409E4073
:1038C000761E16403143F0BC08F0D2BE0CED00E08D
:1038D000064900F0070208684FF6FF03184040EA67
:1038E0000220034A10430860704700000CED00E01E
:1038F0000000FA05BFF34F8F05480168054A01F43F
:10390000E06111430160BFF34F8F00BFFDE700008E
:103910000CED00E00400FA0501220168C0F8E8227D
:10392000002280F8E02231F8540F40F001000880B6
:10393000088840F0020008801046704770B50F4DAF
:10394000044669B101290AD1D4F8F00207F0DFFD7D
:10395000A069002803D0286840F00600286070BDE8
:10396000A06928B106F04AFD286820F0060028600A
:10397000D4F8F002BDE8704007F03CBD10ED00E067
:1039800010B50C0607D501F0070101EB810100EB32
:10399000C100283005E001EB810100EBC10000F51A
:1039A000B47099B232B1012202730181190C4181C4
:1039B000002010BD00220273C180F9E701EB8102F3
:1039C00000EBC202D0F8F002D26B07F0C9BB01EBEA
:1039D000810200EBC202D0F8F002D2F87C2107F09D
:1039E00013BC10B5040006D0032084F8A902206897
:1039F00008F0E3FD08B1012010BD204600F06EFC88
:103A0000002084F8A90210BD10B5044690F8A80261
:103A1000012809D0012084F8A802206808F01DFAC6
:103A2000002084F8A80210BD022010BD10B5044685
:103A300090F8A802012809D0012084F8A802206883
:103A400008F012FA002084F8A80210BD022010BD70
:103A500070B504460B0601F0070000EB800104EB93
:103A6000C1014FF001024FF0000503D581F8292074
:103A7000283103E081F8695101F5B471087094F8B8
:103A8000A802012808D084F8A822206808F05EF96E
:103A900084F8A852002070BD022070BD70B50446A5
:103AA00001F00F006268904201D9012070BD0B0641
:103AB00001F0070000EB800104EBC1014FF00102AF
:103AC0004FF0000503D581F82920283103E081F863
:103AD000695101F5B4718D70087094F8A80201283D
:103AE00008D084F8A822206808F0D8F984F8A852F1
:103AF000002070BD022070BD2DE9F04704685FEA28
:103B000042480B788D69B4F850804FF0000C4BF6AA
:103B10008F7748F2800648F68F7948F2C00A44440D
:103B200028D540F2024808EBC30834F80840C4F333
:103B30000904A54203D32D1B8D6102D00BE0C1F80F
:103B400018C0D0F800C03CF823503D4085F4005523
:103B500035432CF82350520609D50B78056835F803
:103B6000232002EA090242EA0A0225F8232074B35C
:103B70000A8927E040F2064808EBC30834F80840F9
:103B8000C4F30904A54203D32D1B8D6102D00BE0C1
:103B9000C1F818C0D0F800C03CF823503D4085F46F
:103BA000005535432CF82350520609D40D7803688C
:103BB00033F8252002EA090242EA0A0223F8252006
:103BC0002CB14A8949690068234608F0DAFC20468E
:103BD000BDE8F0872DE9F047054600680C465FEA2E
:103BE00042681646D1F818C02278B0F8508048F6DE
:103BF0008F774CF280094FF6FF734FF4004A4FF075
:103C0000000140447BD540F2024808EBC20830F87E
:103C10000800C0F30900844514D9BCEB000CC4F8BB
:103C200018C010D0760408D5D5F800C03CF8226042
:103C30003E4046EA09062CF8226094F82420012A26
:103C400050D04EE1A161607810B1012813D01AE084
:103C50002868B0F85030184400EBC200B0F80224D5
:103C600022F4F842A0F80224B0F8022442F4004200
:103C7000A0F8022407E02868B0F85030184400EBA0
:103C8000C200A0F802146278286812B1012A11D08B
:103C900018E0B0F850100844217800EBC100B0F8EB
:103CA000061421F4F841A0F80614B0F8061441F403
:103CB000004105E0B0F850201044227800EBC2002B
:103CC000A0F8061421782846FFF778FE7004B8D5CE
:103CD00021782A6832F82100384040EA090022F8A9
:103CE0002100FEE0626902446261E2690244E2612D
:103CF0002669226AB24203D33046111A04E038E042
:103D000084F824100AB110462162617811B10129AA
:103D100023D02BE02968B1F850201144227801EB20
:103D2000C20101F2024148B13E280FD84208C6073D
:103D300000D0521C03EA82220A8017E00A8822F48B
:103D4000F8420A800A8842F40042F5E74209C306B5
:103D500000D1521E4AEA8222EEE72968B1F85020CB
:103D60001144227801EBC201A1F8020483B2228936
:103D7000B3E040F2064808EBC20830F80800C0F390
:103D80000900844514D3BCEB000CC4F818C010D053
:103D9000760408D4D5F800C03CF822603E4046EADC
:103DA00009062CF8226094F82420012A50D098E0CB
:103DB000A161607810B1012813D01AE02868B0F82A
:103DC0005030184400EBC200B0F8022422F4F8424C
:103DD000A0F80224B0F8022442F40042A0F8022421
:103DE00007E02868B0F85030184400EBC200A0F893
:103DF00002146278286812B1012A11D018E0B0F8D4
:103E000050100844217800EBC100B0F8061421F4EA
:103E1000F841A0F80614B0F8061441F4004105E09A
:103E2000B0F850201044227800EBC200A0F806142D
:103E300021782846FFF7C2FD700452D42278296801
:103E400031F82200384040EA090021F8220048E019
:103E5000626902446261E2690244E2612669226A9F
:103E6000B24203D33046111A216204E00AB110466F
:103E7000216284F824106278296812B1012A22D0C4
:103E800029E0B1F850201144227801EBC20101F27F
:103E9000064148B13E280FD84208C60700D0521C40
:103EA00003EA82220A8016E00A8822F4F8420A8095
:103EB0000A8842F40042F5E74209C30600D1521EC7
:103EC0004AEA8222EEE7B1F850201144227801EB51
:103ED000C201A1F80604628983B26169286808F00A
:103EE00075FB21782A6832F8210048F6BF73184024
:103EF00080F0300048F28003184322F821000020AF
:103F0000BDE8F08710B5044690F8A80201280AD051
:103F1000012084F8A802080607D501F007012068EF
:103F200008F023FB04E0022010BD206808F01BFB12
:103F3000002084F8A80210BD01F0070101EB810107
:103F400000EBC100D0F8840170472DE9F041044630
:103F50000F0601F0070000EB800104EBC1014FF0F8
:103F600001064FF0000503D581F82960283103E0F0
:103F700081F8695101F5B47108700A61CB704A7813
:103F800002B1C881022B00D10D7194F8A80201285A
:103F900009D084F8A862206807F0AAFD284684F8B2
:103FA000A852BDE8F0810220FBE770B50C4601F095
:103FB000070505EB850100EBC101C1E95F23002284
:103FC000C1F8842181F8692181F8685101F5B47143
:103FD0006207006807F0B8FF002070BD70B50446A6
:103FE0000D4601F007006168884201D9012070BDCB
:103FF00029064FF000064FF0010207D500EB8001C3
:1040000004EBC10181F82920283107E005EB850187
:1040100004EBC10181F8696101F5B4718A7008701F
:1040200094F8A802012807D084F8A822206807F095
:1040300071FF680702D006E0022070BD04F52C7104
:10404000206807F029FF84F8A862002070BD70B5D1
:104050000C4601F0070505EB850100EBC101C1E944
:104060000F23012281F84C208B6400234B6481F8DC
:10407000292001F8285F6207006807F065FF00202B
:1040800070BD10B50446006808F078FA000402D547
:10409000204604F003FA206808F070FA40050CD5B9
:1040A000206830F8441F21F480610180204600F030
:1040B00077F90021204600F0A3F9206808F05EFAA5
:1040C000400405D5206830F8441F21F48041018068
:1040D000206808F053FA800405D5206830F8441FA2
:1040E00021F400510180206808F048FAC0041FD56F
:1040F000206830F8401F21F004010180206830F86A
:10410000401F21F00801018094F8E002012806D147
:10411000002084F8E00201462046FFF70FFC20460D
:1041200000F052F9206830F8441F21F480510180DA
:10413000206808F023FA000514D5206830F8401FE5
:1041400041F008010180206830F8441F21F400612B
:104150000180206830F8401F41F0040101802046B2
:1041600000F094F9206808F009FA00060BD52068E1
:1041700030F8441F21F08001018094F8E002E0B1A2
:10418000204600F083F9206808F0F8F9800508D58A
:10419000206830F8441F21F400710180204600F0AF
:1041A0002BF9206808F0EAF9C00505D5206830F839
:1041B000441F21F48071018010BD206830F8401F39
:1041C00041F004010180206830F8401F41F00801EF
:1041D0000180012084F8E0022068B0F854003C21FE
:1041E00001EA9000C4F8E40201212046FFF7A6FB93
:1041F000C9E700002DE9F04186B0040004D094F82E
:10420000A902002520B108E0012006B0BDE8F08138
:1042100084F8A852204600F07BF8032084F8A90215
:10422000206807F031FE04F1100114228846684628
:10423000FCF752F894E80F0007F086FD0226D0BB89
:104240000021206808F0B1F9002001270FE000BF2D
:1042500000EB800104EBC10181F8297001F8280FFF
:10426000C881CD700D614D61401CC0B28D61616827
:104270008142EDD8002011E000EB800104EBC10188
:1042800081F8695181F8680181F86B51C1F8785162
:10429000C1F87C51401CC0B2C1F8805161688142B4
:1042A000EAD8142241466846FCF716F894E80F0055
:1042B00007F0E1FD10B184F8A962A5E784F8245065
:1042C00084F8A972E069012802D12046FFF724FB97
:1042D000206807F0C9FD002097E7000010B50068CE
:1042E000094988420FD10948816D21F080618165BB
:1042F0004FF4C0514FF09040FEF702FCBDE8104073
:104300004320FFF7A7BA10BD00680040001002402C
:1043100030B5A1B0044614211AA8FBF7F6FF6821B6
:104320006846FBF7F2FF1C492068884231D100251E
:10433000401414950090684600F0FAFA08B1FDF7B1
:1043400080FA164CE06C40F00100E064E06C1AA9C1
:1043500000F001001F904FF4C0501A900220CDE9E8
:104360001B0503201D900A201E904FF09040FEF781
:1043700081FCA06D40F08060A065A06D002200F07F
:1043800080601F9011464320FFF782FA4320FFF719
:1043900072FA21B030BD00000068004000100240F9
:1043A00070B5044680680125022801D0FDF749FA5E
:1043B0002946D4F8F00207F037F8D4F8F002BDE847
:1043C000704006F0EABF000010B50446806930B1C5
:1043D0000748016821F00601016006F00FF8054961
:1043E0000A200860D4F8F002BDE8104007F002B8D7
:1043F00010ED00E0A4000020D0F8F00207F004B8AF
:1044000010B5044690F8A80201280BD0012084F8CA
:10441000A80284F82410206808F0C9F8002084F865
:10442000A80210BD022010BDD0F8F02200F52C71BA
:10443000104607F00CB810B5044690F8A802012801
:104440000CD0012084F8A802206808F083F82068C6
:1044500007F003FD002084F8A80210BD022010BD63
:1044600010B5044690F8A80201280CD0012084F869
:10447000A802206807F008FD206807F0F5FC00207E
:1044800084F8A80210BD022010BD000010B504463B
:10449000D0F8F00207F03BF8A06920B104480168A9
:1044A00041F00601016003490020086010BD0000D2
:1044B00010ED00E0A40000201649B0F5007F086868
:1044C000C0F3412009D0022805D0086820F4C0605C
:1044D00040F480600860002070470128FBD0086825
:1044E00020F4C06040F4007008600B48322200687D
:1044F00050430A4AB0FBF2F0401C00E0401E4A69FB
:10450000520501D50028F9D148694005E3D50320BB
:104510007047000000700040A802002040420F00D9
:104520000248416841F4806141607047007000407A
:104530000A490A6822F007020A6009490A6842F03B
:1045400004020A60012807D040BF20BF20BF0868CE
:1045500020F004000860704730BFF8E700700040AA
:1045600010ED00E00B490A6822F00702521C0A60B5
:1045700009490A6842F004020A60012807D040BFD6
:1045800020BF20BF086820F004000860704730BFDB
:10459000F8E700000070004010ED00E002480068FD
:1045A00000F4C060704700000070004002480168DD
:1045B00041F480710160704700700040B0F5804F99
:1045C000084601D0FFF7B4BFFFF7CCBF2DE9F05F7D
:1045D00005460020D14A4FF400444FF4FA48B5F59F
:1045E000003F0CD0D168F02601F00301CC4FCD4B39
:1045F000012923D0022933D003293AD133E0D2F85C
:10460000901001F44071B1F5807F0BD0B1F5007FBF
:104610000ED0B1F5407F03D11168890300D5C2489F
:10462000BDE8F09FD2F890108907F9D52046F7E74A
:10463000D2F894108907F3D54046F1E7116889074D
:1046400017D51168090703D5116801F0F00103E0DF
:10465000D2F8941006EA1111090957F8211009E05F
:104660001168490501E011688903002901DA19463A
:1046700000E000214FF480394FF4806A4FF4005B72
:104680004FF4804E4FF4006CB5F5007F70D028DCFD
:10469000202D6ED013DC012D6CD0022D6BD0042D9B
:1046A0006AD0082DBCD1D2F8881011F0C0017DD09D
:1046B00040292BD0802913D0C029B1D1B2E7402D99
:1046C00075D0802D74D0B5F5807FA9D1D2F888102F
:1046D00011F440316AD0494518D0B1F5003F9FD15F
:1046E00016E14D457BD012DC554579D0654521D08A
:1046F0005D4524D0754593D1D2F8883003F04053FE
:10470000B3F1805F6DD0B3F1405F89D1D8E0B5F5EA
:10471000802F14D0B5F5002F11D0B5F5801F86D1AC
:10472000D2F89C1011F0030140D0012978D0022961
:10473000B8D1EDE06046BDE8F05F04F01FB8D2F8F4
:10474000883013F040634DD0B3F1806F33D0B3F1B4
:10475000006F1AD0B3F1406FA4D1116889077FF5BB
:1047600066AF1068000708D5106800F0F00008E098
:10477000AAE062E03CE047E053E0D2F8940006EAA9
:104780001010000957F820004AE713689B01FBD579
:10479000D368DB02F8D5D068C0F306204143D06867
:1047A000C0F30210401CB1FBF0F002E0ABE072E09D
:1047B0007CE0D16810E013681B01E5D51369DB02CA
:1047C000E2D51069C0F306204143D068C0F302105F
:1047D000401CB1FBF0F01169C1F341514DE051E0D3
:1047E00082E037E0D2F898108907CDD54F4817E717
:1047F000D2F8881011F0030149D0012960D00229B4
:1048000053D00329C0D10DE7D2F8881011F00C0164
:104810007AD0042954D008297AD00C29B4D101E7E0
:104820004EE0D2F8881011F030016DD0102947D039
:1048300020296DD03029A7D1F4E6D2F8881011F4E0
:10484000406161D051453BD0614561D0B1F5406FC9
:104850009AD1E7E613681B0196D51369DB0193D55E
:104860001069C0F306204143D068C0F30210401C19
:10487000B1FBF0F01169C1F34161491C4900B0FB83
:10488000F1F0CDE6D2F8880010F0004F18D1BDE865
:10489000F05F00F079BAD2F8881011F4405133D0AB
:1048A000B1F5805F0CD05945A1D131E0D2F8881024
:1048B00011F4404128D0714502D0A14297D127E0A0
:1048C000BDE8F05F00F072BAD2F8881011F4402110
:1048D0001AD0B1F5802F3FF4ABAEB1F5002F17D051
:1048E000B1F5402FCDD19DE6D2F8881011F44011DA
:1048F0000AD0B1F5801FEED0B1F5001F08D0B1F598
:10490000401FBED18EE6FFE7BDE8F05F00F02ABA97
:1049100011684905B5D5184682E60000001002402E
:10492000D07D01080024F40020A10700006CDC0207
:104930002DE9F84F044600270088C04D3E4600058B
:1049400015D5E06C60B1B0F5000F04D0B0F5400FA4
:104950002BD001270AE0E86840F48030E86024E0CA
:104960000021201D03F05EFF07001ED03E46206898
:1049700080033AD5A86D4FF00008C00009D4A86D97
:1049800040F08050A865A86D4FF0010800F08050FD
:104990000090DFF8ACA2DAF8001041F48071CAF898
:1049A0000010FEF74DFA814610E0D5F88800E16C62
:1049B00020F440000843C5F88800D8E7FEF740FA25
:1049C000A0EB0900022801D9032705E0DAF800006E
:1049D000C005F3D5002F7CD04FEA0706B8F1000FD1
:1049E00003D0A86D20F08050A8652078C00707D0BC
:1049F000D5F88800216A20F003000843C5F8880034
:104A00002078800707D5D5F88800616A20F00C006F
:104A10000843C5F888002078400707D5D5F88800F6
:104A2000A16A20F030000843C5F88800207800070C
:104A300007D5D5F88800E16A20F0C0000843C5F822
:104A400088002078800607D5D5F88800216B20F4EF
:104A500040600843C5F888002088800507D5D5F850
:104A60008800616C20F440200843C5F88800208845
:104A7000400507D5D5F88800A16C20F44010084304
:104A8000C5F888002078400607D5D5F88800616B06
:104A900020F440500843C5F888002078000607D568
:104AA000D5F88800A16B20F440400843C5F8880081
:104AB0002088C00507D5D5F88800E16B20F4403088
:104AC0000843C5F888002068C00209D5D5F89C00C5
:104AD00000E01CE0216C20F003000843C5F89C00B6
:104AE00020884FF0006780044FF080684ED5D5F8DD
:104AF0008800216D20F040600843C5F88800206DD3
:104B0000B8423BD1E86840F48010E8603EE0D5F858
:104B1000900010F4407014D0616E814211D0D5F82D
:104B20009000D5F8901020F4407041F48031C5F821
:104B30009010D5F8901021F48031C5F89010C5F888
:104B40009000C00711D0FEF77BF9074640F2DC5910
:104B500007E000BFFEF774F9C11B494501D90326E0
:104B60003CE7D5F890008007F4D5D5F89000616E49
:104B700020F440700843C5F890002FE7404505D168
:104B80000121201D03F04EFE00B1064620680003FF
:104B900017D5D5F88800616D20F040600843C5F84E
:104BA0008800606DB84204D1E86840F48010E86085
:104BB00007E0404505D10121201D03F033FE00B17F
:104BC00006462068400317D5D5F88800A16D20F06F
:104BD00040600843C5F88800A06DB84204D1E86879
:104BE00040F48010E86007E0404505D10121201D18
:104BF00003F018FE00B106462088400411D5D5F810
:104C00008800E16D20F040500843C5F88800E06D51
:104C1000B0F1805F05D10221201D03F003FE00B139
:104C200006462068C00306D555F8880F216E20F08F
:104C30000040084328603046BDE8F88F001002406D
:104C4000007000402DE9F0470F46050058D0404E57
:104C5000306800F00700B84209D2306820F0070041
:104C600038433060306800F00700B84248D12878F7
:104C7000384CC0072CD06868032811D0022812D005
:104C8000216898B1490500293ADAA16821F00301A9
:104C90000143A160FEF7D4F8804641F2883910E064
:104CA00021688901EFE721688903ECE78907EAE7D2
:104CB000FEF7C6F8A0EB0801494502D90320BDE87C
:104CC000F087A068696800F00C00B0EB810FEFD1AD
:104CD0002878800705D5A068A96820F0F00008436F
:104CE000A060306800F00700B8420BD9306820F0AF
:104CF000070038433060306800F00700B84201D048
:104D00000120DCE72878400705D5A068E96820F491
:104D1000E0600843A0602878000706D5A0682969EC
:104D200020F4605040EAC100A06000F03FF8A168A4
:104D3000094AC1F30311515C01F01F01C840074942
:104D4000086007480068BDE8F047FEF74BBD00006B
:104D50000020024000100240C07D0108A80200208F
:104D6000A00200200548064900688968054AC1F389
:104D70000221515C01F01F01C8407047A8020020C9
:104D800000100240007E0108054806490068896855
:104D9000054AC1F3C221515C01F01F01C8407047B0
:104DA000A802002000100240007E010830B5214911
:104DB000002210468B6813F00C04CB6803F0030547
:104DC0001D4B09D00C2C05D0042C01D0082C00D18F
:104DD000184630BD012D10D10A68120704D4D1F84D
:104DE0009420C2F3032202E00A68C2F30312134DB7
:104DF00055F822204CB10C2CEBD1C86800F0030010
:104E0000022804D0032803D101E0104630BD1A4621
:104E1000C868CB68C0F30210C3F306235343401C99
:104E2000B3FBF0F2C868C0F34160401C4000B2FB25
:104E3000F0F030BD001002400024F400D07D0108E5
:104E40002DE9F84F04006FD0FE4DA86800F00C0665
:104E5000E86800F003072078C00664D576B10C2E10
:104E600001D1012F0AD0A069002828687AD040F02B
:104E700001002860FDF7E4FF80465DE028688007B8
:104E800002D5A0690028DED0216A2868000703D572
:104E9000286800F0F00004E0D5F89400F02202EA5F
:104EA0001010814216D9084603F052FD00283BD16C
:104EB000286840F0080028602868216A20F0F00087
:104EC000084328606868E16920F47F4040EA0120D7
:104ED000686016E0286840F0080028602868216AA9
:104EE00020F0F000084328606868E16920F47F4002
:104EF00040EA0120686026B9206A03F029FD0028F5
:104F0000D5D1FFF753FFA968CF4AC1F30311515C14
:104F100001F01F01C840CD490860CD480068FEF788
:104F200061FC00287ED12EE0CCE000BFFDF788FFB9
:104F3000A0EB0800022876D828688007F6D52868F4
:104F400040F0080028602868216A20F0F00008433B
:104F500028606868E16920F47F4040EA01206860C9
:104F600011E0FFE720F001002860FDF769FF8046AF
:104F700006E000BFFDF764FFA0EB08000228DAD8C6
:104F800028688007F6D4207840F2DC58C00740D06B
:104F9000082E18D00C2E01D1032F14D06068B0F564
:104FA000803F17D0B0F5A02F286817D020F48030AC
:104FB0002860286820F4802028606068E0B1FDF750
:104FC0003FFF814614E02868800322D560680028EE
:104FD00078D01EE0286840F48030EDE740F480206F
:104FE0002860F7E7FDF72CFFA0EB09014145A2D8A7
:104FF00028688003F6D50CE0FDF722FF814605E026
:10500000FDF71EFFA0EB0901414594D828688003F5
:10501000F6D4207880073BD5042E11D00C2E04D175
:10502000022F01E0B6E101E10AD0E068002828681B
:105030001ED040F480702860FDF702FF07460CE0A8
:10504000286840050CD5E0680028C1D008E000BF02
:10505000FDF7F6FEC01B022891D828684005F7D559
:105060006868217C20F0FE4040EA016068600FE043
:1050700020F480702860FDF7E3FE074605E000BFDE
:10508000FDF7DEFEC01B0228B1D828684005F7D422
:105090002078000729D560690028D5F8940012D03F
:1050A00040F00100C5F89400FDF7CAFE074604E091
:1050B000FDF7C6FEC01B022899D8D5F894008007DA
:1050C000F6D512E029E120F00100C5F89400FDF7C3
:1050D000B7FE074605E000BFFDF7B2FEC01B022881
:1050E00085D8D5F894008007F6D42078400764D599
:1050F000A86D0027C00008D4A86D40F08050A865B6
:10510000A86D012700F08050009052480168C90541
:1051100012D40168824641F480710160FDF790FE6F
:10512000814605E0FDF78CFEA0EB090002287DD842
:10513000DAF80000C005F5D5A068012814D00528CC
:10514000D5F8900015D020F00100C5F89000D5F8F2
:10515000900020F0040000BFC5F89000A068C0B126
:10516000FDF76EFE81460FE0D5F8900040F001009B
:10517000F2E740F00400C5F89000F5E7FDF760FEA7
:10518000A0EB0901414551D8D5F890008007F5D52D
:105190000EE0FDF755FE814606E000BFFDF750FE2C
:1051A000A0EB0901414541D8D5F890008007F5D41E
:1051B0001FB1A86D20F08050A8652078800628D502
:1051C000606A0028D5F8980012D040F00100C5F8B8
:1051D0009800FDF735FE074605E000BFFDF730FEFD
:1051E000C01B022822D8D5F898008007F6D510E019
:1051F00020F00100C5F89800FDF722FE074604E004
:10520000FDF71EFEC01B022810D8D5F898008007B5
:10521000F6D4A06AA8B1022824D00C2E7DD028682C
:1052200020F0807028602868000100E0B1E003D41D
:10523000E86820F00300E860E86807490840E86093
:105240000CE09FE000100240C07D0108A802002091
:10525000A002002000700040FFFFEEFEFDF7F0FD11
:10526000044699E0E868E26A00F00301914226D121
:10527000216B00F070020901103991421FD1626B5D
:1052800000F4FE41B1EB022F19D194F8382000F060
:105290007841B1EBC26F12D1A18F00F4C00249086E
:1052A0004905A1F50011914209D194F8401000F090
:1052B000C06049084906A1F1007181424BD00C2E13
:1052C0006FD0286840016CD4286820F08070286076
:1052D000FDF7B6FD064604E0FDF7B2FD801B02288F
:1052E00057D828688001F7D4F4E90B016FF00F025A
:1052F00002EB01110843218A5204490802EB415193
:10530000A26841EA02210843217D4FF07E4249080C
:1053100002EB41610843217B00E042E040EAC160CA
:10532000E968214A11400843E860286840F080702D
:105330002860E86840F08070E860FDF781FD044671
:1053400005E000BFFDF77CFD001B022821D828687E
:105350008001F7D523E02868800120D4286840F038
:1053600080702860E86840F08070E860FDF768FDB4
:10537000044604E0FDF764FD001B022809D82868F4
:105380008001F7D50BE000BFFDF75AFD001B022896
:1053900002D90320BDE8F88F28688001F4D40020EA
:1053A000F8E70120F6E700008C809D01006850308E
:1053B00050F82100704708B50068503000EB8100BC
:1053C0000090026008BD000010B500680B464168FF
:1053D0000D480140080CD870C1F304245C7001F042
:1053E0003F049C70C1F34231197052B903F0EEFAD8
:1053F000D870587803F0EAFA5870987803F0E6FA13
:105400009870002010BD00003FFFFF0010B50B4654
:105410000168896A596001680969C1F30E019960E0
:10542000006801680D480140C1F305401870C1F3E0
:1054300006245C7001F07F049C70890DD97052B90C
:1054400003F0C4FA1870587803F0C0FA58709878CE
:1054500003F0BCFA9870002010BD00007F7F7F0031
:1054600010B504004FF0010044D094F8210028B991
:10547000002084F82000204600F040F8022084F844
:1054800021002168CA2048622168532048622046D2
:1054900003F0B2FA00282DD120688168164A114025
:1054A0008160216888686268A369104322691A4391
:1054B000104388602168E0680861206801692289DA
:1054C00041EA02410161204603F0BAFA002811D1F5
:1054D0002168CA6C22F00302CA646269E16911435F
:1054E0002268D36C1943D1642268FF2151620121E3
:1054F00084F8211010BD0000BFFF8FFF10B59AB0D7
:10550000044668216846FAF700FF0B492068884284
:1055100010D14FF400300090401219906846FFF708
:1055200007FA08B1FCF78DF9044850F8901F41F4D0
:10553000004101601AB010BD002800400010024078
:105540002DE9F05F044690F820000B46012844D076
:10555000012084F82000022084F821002068002621
:1055600080684FEA4060BAB3002800DBDE709878AC
:105570001978DA7840EA01405978090241EA825103
:10558000084393F8241040EA0165186A5F680543F0
:10559000586921680543D8690743CA2048622168D1
:1055A00053204862986A4FF0FF08B0F5807F20686A
:1055B0004FF0030B4FF47A7A81682BD021F40071FD
:1055C00081602068C16801F0800161F42071C160D0
:1055D000FDF736FC814652E002E00220BDE8F09F74
:1055E000002800DBDE70187803F0F9F9050458781C
:1055F00003F0F5F945EA0025987803F0F0F9054342
:10560000D87845EA805593F8240003F0E8F945EA94
:105610000065BAE721F4807181602068C16801F0FB
:10562000800161F4C071C160FDF70AFC814605E0AC
:10563000FDF706FCA0EB0900504517D82068C068AC
:10564000C007F5D02068C56120684764206881687C
:1056500041F4807181602068816841F480511FE0CD
:10566000FDF7EEFBA0EB0900504508D92168C1F811
:10567000248084F821B084F820600320AEE72068FD
:10568000C0688007ECD520680562206887642068C0
:10569000816841F4007181602068816841F40051A3
:1056A00081600A48016841F48021016007480830A0
:1056B000016841F4802101602168C1F82480012043
:1056C00084F8210084F82060002087E7000401406E
:1056D00070B5044690F820000B4601281BD0012627
:1056E00084F82060022084F82100B2B19878D9783B
:1056F00040EA014558781978000240EA41300543F4
:105700002168CA204862216853204862204603F07D
:1057100073F9D0B120E0022070BD5878C10603D5DE
:1057200000F0EF000A305870D87803F058F90504FB
:10573000587803F054F945EA0025987803F04FF9BA
:105740000543187845EA4035DAE7084805402068FF
:105750004560204603F074F92268FF21516208B9C0
:1057600084F82160002184F8201070BD3FFFFF0005
:105770002DE9F041044690F8200090460D4601289E
:1057800011D0012784F82070022084F821002168BC
:10579000CA204862216853204862204603F02CF951
:1057A000002618B129E00220BDE8F0812068B8F198
:1057B000000F80684FEA406024D0002800DBEE70C4
:1057C000A8782978EA7840EA01406978090241EA34
:1057D00082510843184908402168086020688168A0
:1057E00021F480218160D5E90301084321688A689A
:1057F00010438860204603F023F92268FF2151629C
:10580000A0B115E0002800DBEE70287803F0E7F87F
:105810000304687803F0E3F843EA0023A87803F070
:10582000DEF80343E87843EA8050D3E784F8217038
:1058300084F82060B8E700007F7F7F0070B50446E1
:105840000068C16821F0A001C160FDF7F9FA0546C2
:105850004FF47A7607E000BFFDF7F2FA401BB04242
:1058600001D9032070BD2068C0688006F4D50020EF
:1058700070BD00002DE9FE4F0446002703200E46B0
:1058800084F83400606C03285BD0B6F5805F58D094
:105890004FF4006500204FF08069AE421FD1824670
:1058A000009001900021206804F07EF8800113D45C
:1058B0006946204604F0C0F805000DD10198400368
:1058C00034D5B4F850000104206803F05CFD0500F5
:1058D00002D10221206823E0A06B284328E01EB1FA
:1058E000A06B40F0006023E0824600900190002110
:1058F000206804F059F88001EED46946204604F08F
:105900009BF80500E8D10198C0030FD5B4F850000A
:105910000104206803F037FD0500DDD10021206877
:1059200003F07DFD0500D7D15546D5E74D46D3E7B9
:10593000A063A06BDFF87C9038B12168C1F8389083
:1059400023E0A06B40F08050F2E74FF40020FEF718
:105950003DFEB0B108F10208B0FBF8F8211DDFF8F8
:1059600058C00EC96569E04503D9B0FBFCF0801E44
:1059700000E0A0690096CDE90150206804F017F816
:1059800004E0A06B40F00060A06301274FF40071B9
:10599000206803F02BFD30B12268C2F83890A16B6B
:1059A0000143A1630127012084F834003846BDE893
:1059B000FE8F0000FF05400040787D0110B5040017
:1059C0000DD0032084F83400206804F001F820464C
:1059D00000F07AF90020A06384F8340010BD0120A3
:1059E00010BD0000F0B5426E920F0A70426EC2F315
:1059F00083624A70426EC2F301628A70426E120C78
:105A0000CA70B0F86420120A0A7190F864204A71D2
:105A1000826E120DCA80826EC2F303420A72B0F81F
:105A20006820C2F3C0324A72B0F86820C2F38032F4
:105A30008A72B0F86820C2F34032CA72B0F86820A7
:105A4000C2F300320A7300264E73426C4FF40075A5
:105A5000012462B1012A3AD0026847499163816BFF
:105A600041F08051816380F834400120F0BDB0F8EE
:105A70006820C36E9205120D42EA93720A61C26EEB
:105A8000C2F3C2620A75C26EC2F302624A75C26E86
:105A9000C2F342528A75C26EC2F38242CA75C26EA6
:105AA000C2F3C2320A760A69521C42650B7E03F0C9
:105AB00007039B1C9A4042650B7A03F00F0704FA18
:105AC00007F383655B0A5A43C0E917250EE090F897
:105AD0006820C36E9206920A42EA13420A610A697A
